{
  "_format": "hh-sol-artifact-1",
  "contractName": "DesperadosTokens",
  "sourceName": "cache/solpp-generated-contracts/currency/DesperadosTokens.sol",
  "abi": [
    {
      "inputs": [],
      "stateMutability": "nonpayable",
      "type": "constructor"
    },
    {
      "anonymous": false,
      "inputs": [
        {
          "indexed": true,
          "internalType": "address",
          "name": "account",
          "type": "address"
        },
        {
          "indexed": true,
          "internalType": "address",
          "name": "operator",
          "type": "address"
        },
        {
          "indexed": false,
          "internalType": "bool",
          "name": "approved",
          "type": "bool"
        }
      ],
      "name": "ApprovalForAll",
      "type": "event"
    },
    {
      "anonymous": false,
      "inputs": [
        {
          "indexed": true,
          "internalType": "address",
          "name": "operator",
          "type": "address"
        },
        {
          "indexed": true,
          "internalType": "address",
          "name": "from",
          "type": "address"
        },
        {
          "indexed": true,
          "internalType": "address",
          "name": "to",
          "type": "address"
        },
        {
          "indexed": false,
          "internalType": "uint256[]",
          "name": "ids",
          "type": "uint256[]"
        },
        {
          "indexed": false,
          "internalType": "uint256[]",
          "name": "values",
          "type": "uint256[]"
        }
      ],
      "name": "TransferBatch",
      "type": "event"
    },
    {
      "anonymous": false,
      "inputs": [
        {
          "indexed": true,
          "internalType": "address",
          "name": "operator",
          "type": "address"
        },
        {
          "indexed": true,
          "internalType": "address",
          "name": "from",
          "type": "address"
        },
        {
          "indexed": true,
          "internalType": "address",
          "name": "to",
          "type": "address"
        },
        {
          "indexed": false,
          "internalType": "uint256",
          "name": "id",
          "type": "uint256"
        },
        {
          "indexed": false,
          "internalType": "uint256",
          "name": "value",
          "type": "uint256"
        }
      ],
      "name": "TransferSingle",
      "type": "event"
    },
    {
      "anonymous": false,
      "inputs": [
        {
          "indexed": false,
          "internalType": "string",
          "name": "value",
          "type": "string"
        },
        {
          "indexed": true,
          "internalType": "uint256",
          "name": "id",
          "type": "uint256"
        }
      ],
      "name": "URI",
      "type": "event"
    },
    {
      "inputs": [],
      "name": "DESOS",
      "outputs": [
        {
          "internalType": "uint256",
          "name": "",
          "type": "uint256"
        }
      ],
      "stateMutability": "view",
      "type": "function"
    },
    {
      "inputs": [],
      "name": "DESOS_FREE",
      "outputs": [
        {
          "internalType": "uint256",
          "name": "",
          "type": "uint256"
        }
      ],
      "stateMutability": "view",
      "type": "function"
    },
    {
      "inputs": [],
      "name": "HOTEL",
      "outputs": [
        {
          "internalType": "uint256",
          "name": "",
          "type": "uint256"
        }
      ],
      "stateMutability": "view",
      "type": "function"
    },
    {
      "inputs": [],
      "name": "MINE",
      "outputs": [
        {
          "internalType": "uint256",
          "name": "",
          "type": "uint256"
        }
      ],
      "stateMutability": "view",
      "type": "function"
    },
    {
      "inputs": [],
      "name": "SALOON",
      "outputs": [
        {
          "internalType": "uint256",
          "name": "",
          "type": "uint256"
        }
      ],
      "stateMutability": "view",
      "type": "function"
    },
    {
      "inputs": [],
      "name": "TOKEN_NAME",
      "outputs": [
        {
          "internalType": "string",
          "name": "",
          "type": "string"
        }
      ],
      "stateMutability": "view",
      "type": "function"
    },
    {
      "inputs": [],
      "name": "TRADING_POST",
      "outputs": [
        {
          "internalType": "uint256",
          "name": "",
          "type": "uint256"
        }
      ],
      "stateMutability": "view",
      "type": "function"
    },
    {
      "inputs": [],
      "name": "TRAIN_STATION",
      "outputs": [
        {
          "internalType": "uint256",
          "name": "",
          "type": "uint256"
        }
      ],
      "stateMutability": "view",
      "type": "function"
    },
    {
      "inputs": [],
      "name": "WORKER",
      "outputs": [
        {
          "internalType": "uint256",
          "name": "",
          "type": "uint256"
        }
      ],
      "stateMutability": "view",
      "type": "function"
    },
    {
      "inputs": [
        {
          "internalType": "address",
          "name": "recipient",
          "type": "address"
        },
        {
          "internalType": "uint256",
          "name": "amount",
          "type": "uint256"
        }
      ],
      "name": "_rewardDesos",
      "outputs": [],
      "stateMutability": "nonpayable",
      "type": "function"
    },
    {
      "inputs": [
        {
          "internalType": "address",
          "name": "account",
          "type": "address"
        },
        {
          "internalType": "uint256",
          "name": "id",
          "type": "uint256"
        }
      ],
      "name": "balanceOf",
      "outputs": [
        {
          "internalType": "uint256",
          "name": "",
          "type": "uint256"
        }
      ],
      "stateMutability": "view",
      "type": "function"
    },
    {
      "inputs": [
        {
          "internalType": "address[]",
          "name": "accounts",
          "type": "address[]"
        },
        {
          "internalType": "uint256[]",
          "name": "ids",
          "type": "uint256[]"
        }
      ],
      "name": "balanceOfBatch",
      "outputs": [
        {
          "internalType": "uint256[]",
          "name": "",
          "type": "uint256[]"
        }
      ],
      "stateMutability": "view",
      "type": "function"
    },
    {
      "inputs": [
        {
          "internalType": "address",
          "name": "recipient",
          "type": "address"
        }
      ],
      "name": "getFreeDesos",
      "outputs": [],
      "stateMutability": "nonpayable",
      "type": "function"
    },
    {
      "inputs": [
        {
          "internalType": "address",
          "name": "account",
          "type": "address"
        },
        {
          "internalType": "address",
          "name": "operator",
          "type": "address"
        }
      ],
      "name": "isApprovedForAll",
      "outputs": [
        {
          "internalType": "bool",
          "name": "",
          "type": "bool"
        }
      ],
      "stateMutability": "view",
      "type": "function"
    },
    {
      "inputs": [
        {
          "internalType": "address",
          "name": "recipient",
          "type": "address"
        }
      ],
      "name": "mintHotel",
      "outputs": [],
      "stateMutability": "nonpayable",
      "type": "function"
    },
    {
      "inputs": [
        {
          "internalType": "address",
          "name": "recipient",
          "type": "address"
        }
      ],
      "name": "mintMine",
      "outputs": [],
      "stateMutability": "nonpayable",
      "type": "function"
    },
    {
      "inputs": [
        {
          "internalType": "address",
          "name": "",
          "type": "address"
        },
        {
          "internalType": "address",
          "name": "",
          "type": "address"
        },
        {
          "internalType": "uint256[]",
          "name": "",
          "type": "uint256[]"
        },
        {
          "internalType": "uint256[]",
          "name": "",
          "type": "uint256[]"
        },
        {
          "internalType": "bytes",
          "name": "",
          "type": "bytes"
        }
      ],
      "name": "onERC1155BatchReceived",
      "outputs": [
        {
          "internalType": "bytes4",
          "name": "",
          "type": "bytes4"
        }
      ],
      "stateMutability": "nonpayable",
      "type": "function"
    },
    {
      "inputs": [
        {
          "internalType": "address",
          "name": "",
          "type": "address"
        },
        {
          "internalType": "address",
          "name": "",
          "type": "address"
        },
        {
          "internalType": "uint256",
          "name": "",
          "type": "uint256"
        },
        {
          "internalType": "uint256",
          "name": "",
          "type": "uint256"
        },
        {
          "internalType": "bytes",
          "name": "",
          "type": "bytes"
        }
      ],
      "name": "onERC1155Received",
      "outputs": [
        {
          "internalType": "bytes4",
          "name": "",
          "type": "bytes4"
        }
      ],
      "stateMutability": "nonpayable",
      "type": "function"
    },
    {
      "inputs": [
        {
          "internalType": "address",
          "name": "from",
          "type": "address"
        },
        {
          "internalType": "address",
          "name": "to",
          "type": "address"
        },
        {
          "internalType": "uint256[]",
          "name": "ids",
          "type": "uint256[]"
        },
        {
          "internalType": "uint256[]",
          "name": "amounts",
          "type": "uint256[]"
        },
        {
          "internalType": "bytes",
          "name": "data",
          "type": "bytes"
        }
      ],
      "name": "safeBatchTransferFrom",
      "outputs": [],
      "stateMutability": "nonpayable",
      "type": "function"
    },
    {
      "inputs": [
        {
          "internalType": "address",
          "name": "from",
          "type": "address"
        },
        {
          "internalType": "address",
          "name": "to",
          "type": "address"
        },
        {
          "internalType": "uint256",
          "name": "id",
          "type": "uint256"
        },
        {
          "internalType": "uint256",
          "name": "amount",
          "type": "uint256"
        },
        {
          "internalType": "bytes",
          "name": "data",
          "type": "bytes"
        }
      ],
      "name": "safeTransferFrom",
      "outputs": [],
      "stateMutability": "nonpayable",
      "type": "function"
    },
    {
      "inputs": [
        {
          "internalType": "address",
          "name": "operator",
          "type": "address"
        },
        {
          "internalType": "bool",
          "name": "approved",
          "type": "bool"
        }
      ],
      "name": "setApprovalForAll",
      "outputs": [],
      "stateMutability": "nonpayable",
      "type": "function"
    },
    {
      "inputs": [
        {
          "internalType": "bytes4",
          "name": "interfaceId",
          "type": "bytes4"
        }
      ],
      "name": "supportsInterface",
      "outputs": [
        {
          "internalType": "bool",
          "name": "",
          "type": "bool"
        }
      ],
      "stateMutability": "view",
      "type": "function"
    },
    {
      "inputs": [
        {
          "internalType": "uint256",
          "name": "",
          "type": "uint256"
        }
      ],
      "name": "uri",
      "outputs": [
        {
          "internalType": "string",
          "name": "",
          "type": "string"
        }
      ],
      "stateMutability": "view",
      "type": "function"
    }
  ],
  "bytecode": "0x60806040523480156200001157600080fd5b5060405180606001604052806027815260200162003e88602791396200003d81620000a660201b60201c565b506000600190506200009f306000633b9aca00846200005d91906200097e565b6040518060400160405280600381526020017f3078300000000000000000000000000000000000000000000000000000000000815250620000c260201b60201c565b5062000d64565b8060029080519060200190620000be929190620005b8565b5050565b600073ffffffffffffffffffffffffffffffffffffffff168473ffffffffffffffffffffffffffffffffffffffff16141562000135576040517f08c379a00000000000000000000000000000000000000000000000000000000081526004016200012c9062000890565b60405180910390fd5b600062000147620002aa60201b60201c565b905060006200015c85620002b260201b60201c565b905060006200017185620002b260201b60201c565b90506200018a836000898585896200037b60201b60201c565b8460008088815260200190815260200160002060008973ffffffffffffffffffffffffffffffffffffffff1673ffffffffffffffffffffffffffffffffffffffff1681526020019081526020016000206000828254620001eb919062000921565b925050819055508673ffffffffffffffffffffffffffffffffffffffff16600073ffffffffffffffffffffffffffffffffffffffff168473ffffffffffffffffffffffffffffffffffffffff167fc3d58168c5ae7397731d063d5bbf3d657854427343f4c083240f7aacaa2d0f6289896040516200026b929190620008b2565b60405180910390a46200028a836000898585896200038360201b60201c565b620002a1836000898989896200038b60201b60201c565b50505050505050565b600033905090565b60606000600167ffffffffffffffff811115620002f8577f4e487b7100000000000000000000000000000000000000000000000000000000600052604160045260246000fd5b604051908082528060200260200182016040528015620003275781602001602082028036833780820191505090505b509050828160008151811062000366577f4e487b7100000000000000000000000000000000000000000000000000000000600052603260045260246000fd5b60200260200101818152505080915050919050565b505050505050565b505050505050565b620003b78473ffffffffffffffffffffffffffffffffffffffff166200059560201b62000ce21760201c565b156200058d578373ffffffffffffffffffffffffffffffffffffffff1663f23a6e6187878686866040518663ffffffff1660e01b815260040162000400959493929190620007c4565b602060405180830381600087803b1580156200041b57600080fd5b505af19250505080156200044f57506040513d601f19601f820116820180604052508101906200044c91906200067f565b60015b62000501576200045e62000b78565b806308c379a01415620004c257506200047662000ca8565b80620004835750620004c4565b806040517f08c379a0000000000000000000000000000000000000000000000000000000008152600401620004b9919062000828565b60405180910390fd5b505b6040517f08c379a0000000000000000000000000000000000000000000000000000000008152600401620004f8906200084c565b60405180910390fd5b63f23a6e6160e01b7bffffffffffffffffffffffffffffffffffffffffffffffffffffffff1916817bffffffffffffffffffffffffffffffffffffffffffffffffffffffff1916146200058b576040517f08c379a000000000000000000000000000000000000000000000000000000000815260040162000582906200086e565b60405180910390fd5b505b505050505050565b6000808273ffffffffffffffffffffffffffffffffffffffff163b119050919050565b828054620005c69062000a7f565b90600052602060002090601f016020900481019282620005ea576000855562000636565b82601f106200060557805160ff191683800117855562000636565b8280016001018555821562000636579182015b828111156200063557825182559160200191906001019062000618565b5b50905062000645919062000649565b5090565b5b80821115620006645760008160009055506001016200064a565b5090565b600081519050620006798162000d4a565b92915050565b6000602082840312156200069257600080fd5b6000620006a28482850162000668565b91505092915050565b620006b681620009df565b82525050565b6000620006c982620008e9565b620006d58185620008ff565b9350620006e781856020860162000a49565b620006f28162000b9d565b840191505092915050565b60006200070a82620008f4565b62000716818562000910565b93506200072881856020860162000a49565b620007338162000b9d565b840191505092915050565b60006200074d60348362000910565b91506200075a8262000bbb565b604082019050919050565b60006200077460288362000910565b9150620007818262000c0a565b604082019050919050565b60006200079b60218362000910565b9150620007a88262000c59565b604082019050919050565b620007be8162000a3f565b82525050565b600060a082019050620007db6000830188620006ab565b620007ea6020830187620006ab565b620007f96040830186620007b3565b620008086060830185620007b3565b81810360808301526200081c8184620006bc565b90509695505050505050565b60006020820190508181036000830152620008448184620006fd565b905092915050565b6000602082019050818103600083015262000867816200073e565b9050919050565b60006020820190508181036000830152620008898162000765565b9050919050565b60006020820190508181036000830152620008ab816200078c565b9050919050565b6000604082019050620008c96000830185620007b3565b620008d86020830184620007b3565b9392505050565b6000604051905090565b600081519050919050565b600081519050919050565b600082825260208201905092915050565b600082825260208201905092915050565b60006200092e8262000a3f565b91506200093b8362000a3f565b9250827fffffffffffffffffffffffffffffffffffffffffffffffffffffffffffffffff0382111562000973576200097262000aeb565b5b828201905092915050565b60006200098b8262000a3f565b9150620009988362000a3f565b9250817fffffffffffffffffffffffffffffffffffffffffffffffffffffffffffffffff0483118215151615620009d457620009d362000aeb565b5b828202905092915050565b6000620009ec8262000a1f565b9050919050565b60007fffffffff0000000000000000000000000000000000000000000000000000000082169050919050565b600073ffffffffffffffffffffffffffffffffffffffff82169050919050565b6000819050919050565b60005b8381101562000a6957808201518184015260208101905062000a4c565b8381111562000a79576000848401525b50505050565b6000600282049050600182168062000a9857607f821691505b6020821081141562000aaf5762000aae62000b1a565b5b50919050565b62000ac08262000b9d565b810181811067ffffffffffffffff8211171562000ae25762000ae162000b49565b5b80604052505050565b7f4e487b7100000000000000000000000000000000000000000000000000000000600052601160045260246000fd5b7f4e487b7100000000000000000000000000000000000000000000000000000000600052602260045260246000fd5b7f4e487b7100000000000000000000000000000000000000000000000000000000600052604160045260246000fd5b600060033d111562000b9a5760046000803e62000b9760005162000bae565b90505b90565b6000601f19601f8301169050919050565b60008160e01c9050919050565b7f455243313135353a207472616e7366657220746f206e6f6e204552433131353560008201527f526563656976657220696d706c656d656e746572000000000000000000000000602082015250565b7f455243313135353a204552433131353552656365697665722072656a6563746560008201527f6420746f6b656e73000000000000000000000000000000000000000000000000602082015250565b7f455243313135353a206d696e7420746f20746865207a65726f2061646472657360008201527f7300000000000000000000000000000000000000000000000000000000000000602082015250565b600060443d101562000cba5762000d47565b62000cc4620008df565b60043d036004823e80513d602482011167ffffffffffffffff8211171562000cee57505062000d47565b808201805167ffffffffffffffff81111562000d0e575050505062000d47565b80602083010160043d03850181111562000d2d57505050505062000d47565b62000d3e8260200185018662000ab5565b82955050505050505b90565b62000d5581620009f3565b811462000d6157600080fd5b50565b6131148062000d746000396000f3fe608060405234801561001057600080fd5b506004361061014c5760003560e01c80634b4dc499116100c3578063b8ca5b221161007c578063b8ca5b221461038b578063bc197c81146103a9578063e4a4a75b146103d9578063e985e9c5146103f7578063f23a6e6114610427578063f242432a146104575761014c565b80634b4dc499146102c95780634e1273f4146102e75780635061029d1461031757806358e6717214610335578063a22cb46514610353578063aa24ff9a1461036f5761014c565b806325bd2ac71161011557806325bd2ac71461021d5780632eb2c2d614610239578063306172fc1461025557806339a6de21146102715780633a28c8cd1461028f5780634164e4c9146102ab5761014c565b8062fdd58e1461015157806301ffc9a7146101815780630e89341c146101b15780630fbe687b146101e157806318821400146101ff575b600080fd5b61016b6004803603810190610166919061208b565b610473565b60405161017891906127fe565b60405180910390f35b61019b60048036038101906101969190612133565b61053c565b6040516101a891906125e6565b60405180910390f35b6101cb60048036038101906101c69190612185565b61054e565b6040516101d8919061261c565b60405180910390f35b6101e96105e2565b6040516101f691906127fe565b60405180910390f35b6102076105e7565b604051610214919061261c565b60405180910390f35b6102376004803603810190610232919061208b565b610620565b005b610253600480360381019061024e9190611f01565b610667565b005b61026f600480360381019061026a9190611e9c565b610708565b005b61027961082f565b60405161028691906127fe565b60405180910390f35b6102a960048036038101906102a49190611e9c565b610834565b005b6102b361090b565b6040516102c091906127fe565b60405180910390f35b6102d1610910565b6040516102de91906127fe565b60405180910390f35b61030160048036038101906102fc91906120c7565b610915565b60405161030e919061258d565b60405180910390f35b61031f610ac6565b60405161032c91906127fe565b60405180910390f35b61033d610acb565b60405161034a91906127fe565b60405180910390f35b61036d6004803603810190610368919061204f565b610ad0565b005b61038960048036038101906103849190611e9c565b610ae6565b005b610393610b79565b6040516103a091906127fe565b60405180910390f35b6103c360048036038101906103be9190611f01565b610b7e565b6040516103d09190612601565b60405180910390f35b6103e1610b93565b6040516103ee91906127fe565b60405180910390f35b610411600480360381019061040c9190611ec5565b610b98565b60405161041e91906125e6565b60405180910390f35b610441600480360381019061043c9190611fc0565b610c2c565b60405161044e9190612601565b60405180910390f35b610471600480360381019061046c9190611fc0565b610c41565b005b60008073ffffffffffffffffffffffffffffffffffffffff168373ffffffffffffffffffffffffffffffffffffffff1614156104e4576040517f08c379a00000000000000000000000000000000000000000000000000000000081526004016104db9061267e565b60405180910390fd5b60008083815260200190815260200160002060008473ffffffffffffffffffffffffffffffffffffffff1673ffffffffffffffffffffffffffffffffffffffff16815260200190815260200160002054905092915050565b600061054782610d05565b9050919050565b60606002805461055d90612a6d565b80601f016020809104026020016040519081016040528092919081815260200182805461058990612a6d565b80156105d65780601f106105ab576101008083540402835291602001916105d6565b820191906000526020600020905b8154815290600101906020018083116105b957829003601f168201915b50505050509050919050565b606681565b6040518060400160405280600381526020017f444553000000000000000000000000000000000000000000000000000000000081525081565b61066330836000846040518060400160405280600381526020017f3078300000000000000000000000000000000000000000000000000000000000815250610d7f565b5050565b61066f61101b565b73ffffffffffffffffffffffffffffffffffffffff168573ffffffffffffffffffffffffffffffffffffffff1614806106b557506106b4856106af61101b565b610b98565b5b6106f4576040517f08c379a00000000000000000000000000000000000000000000000000000000081526004016106eb906126fe565b60405180910390fd5b6107018585858585611023565b5050505050565b6103e8610716826000610473565b1015610757576040517f08c379a000000000000000000000000000000000000000000000000000000000815260040161074e906126be565b60405180910390fd5b600a610764826067610473565b106107a4576040517f08c379a000000000000000000000000000000000000000000000000000000000815260040161079b9061275e565b60405180910390fd5b6107e9813060006103e86040518060400160405280600381526020017f3078300000000000000000000000000000000000000000000000000000000000815250610d7f565b61082c81606760016040518060400160405280600381526020017f3078300000000000000000000000000000000000000000000000000000000000815250611391565b50565b60c881565b6000610841826001610473565b14610881576040517f08c379a00000000000000000000000000000000000000000000000000000000081526004016108789061273e565b60405180910390fd5b6108c6308260006103e86040518060400160405280600381526020017f3078300000000000000000000000000000000000000000000000000000000000815250610d7f565b610908816001806040518060400160405280600381526020017f3078300000000000000000000000000000000000000000000000000000000000815250611391565b50565b606581565b606781565b6060815183511461095b576040517f08c379a00000000000000000000000000000000000000000000000000000000081526004016109529061279e565b60405180910390fd5b6000835167ffffffffffffffff81111561099e577f4e487b7100000000000000000000000000000000000000000000000000000000600052604160045260246000fd5b6040519080825280602002602001820160405280156109cc5781602001602082028036833780820191505090505b50905060005b8451811015610abb57610a65858281518110610a17577f4e487b7100000000000000000000000000000000000000000000000000000000600052603260045260246000fd5b6020026020010151858381518110610a58577f4e487b7100000000000000000000000000000000000000000000000000000000600052603260045260246000fd5b6020026020010151610473565b828281518110610a9e577f4e487b7100000000000000000000000000000000000000000000000000000000600052603260045260246000fd5b60200260200101818152505080610ab490612ad0565b90506109d2565b508091505092915050565b606481565b600081565b610ae2610adb61101b565b8383611542565b5050565b600a610af3826064610473565b10610b33576040517f08c379a0000000000000000000000000000000000000000000000000000000008152600401610b2a9061275e565b60405180910390fd5b610b7681606460016040518060400160405280600381526020017f3078300000000000000000000000000000000000000000000000000000000000815250611391565b50565b606881565b600063bc197c8160e01b905095945050505050565b600181565b6000600160008473ffffffffffffffffffffffffffffffffffffffff1673ffffffffffffffffffffffffffffffffffffffff16815260200190815260200160002060008373ffffffffffffffffffffffffffffffffffffffff1673ffffffffffffffffffffffffffffffffffffffff16815260200190815260200160002060009054906101000a900460ff16905092915050565b600063f23a6e6160e01b905095945050505050565b610c4961101b565b73ffffffffffffffffffffffffffffffffffffffff168573ffffffffffffffffffffffffffffffffffffffff161480610c8f5750610c8e85610c8961101b565b610b98565b5b610cce576040517f08c379a0000000000000000000000000000000000000000000000000000000008152600401610cc59061269e565b60405180910390fd5b610cdb8585858585610d7f565b5050505050565b6000808273ffffffffffffffffffffffffffffffffffffffff163b119050919050565b60007f4e2312e0000000000000000000000000000000000000000000000000000000007bffffffffffffffffffffffffffffffffffffffffffffffffffffffff1916827bffffffffffffffffffffffffffffffffffffffffffffffffffffffff19161480610d785750610d77826116af565b5b9050919050565b600073ffffffffffffffffffffffffffffffffffffffff168473ffffffffffffffffffffffffffffffffffffffff161415610def576040517f08c379a0000000000000000000000000000000000000000000000000000000008152600401610de6906126de565b60405180910390fd5b6000610df961101b565b90506000610e0685611791565b90506000610e1385611791565b9050610e23838989858589611857565b600080600088815260200190815260200160002060008a73ffffffffffffffffffffffffffffffffffffffff1673ffffffffffffffffffffffffffffffffffffffff16815260200190815260200160002054905085811015610eba576040517f08c379a0000000000000000000000000000000000000000000000000000000008152600401610eb19061271e565b60405180910390fd5b85810360008089815260200190815260200160002060008b73ffffffffffffffffffffffffffffffffffffffff1673ffffffffffffffffffffffffffffffffffffffff168152602001908152602001600020819055508560008089815260200190815260200160002060008a73ffffffffffffffffffffffffffffffffffffffff1673ffffffffffffffffffffffffffffffffffffffff1681526020019081526020016000206000828254610f6f9190612961565b925050819055508773ffffffffffffffffffffffffffffffffffffffff168973ffffffffffffffffffffffffffffffffffffffff168573ffffffffffffffffffffffffffffffffffffffff167fc3d58168c5ae7397731d063d5bbf3d657854427343f4c083240f7aacaa2d0f628a8a604051610fec929190612819565b60405180910390a4611002848a8a86868a61185f565b611010848a8a8a8a8a611867565b505050505050505050565b600033905090565b8151835114611067576040517f08c379a000000000000000000000000000000000000000000000000000000000815260040161105e906127be565b60405180910390fd5b600073ffffffffffffffffffffffffffffffffffffffff168473ffffffffffffffffffffffffffffffffffffffff1614156110d7576040517f08c379a00000000000000000000000000000000000000000000000000000000081526004016110ce906126de565b60405180910390fd5b60006110e161101b565b90506110f1818787878787611857565b60005b84518110156112ee576000858281518110611138577f4e487b7100000000000000000000000000000000000000000000000000000000600052603260045260246000fd5b60200260200101519050600085838151811061117d577f4e487b7100000000000000000000000000000000000000000000000000000000600052603260045260246000fd5b60200260200101519050600080600084815260200190815260200160002060008b73ffffffffffffffffffffffffffffffffffffffff1673ffffffffffffffffffffffffffffffffffffffff1681526020019081526020016000205490508181101561121e576040517f08c379a00000000000000000000000000000000000000000000000000000000081526004016112159061271e565b60405180910390fd5b81810360008085815260200190815260200160002060008c73ffffffffffffffffffffffffffffffffffffffff1673ffffffffffffffffffffffffffffffffffffffff168152602001908152602001600020819055508160008085815260200190815260200160002060008b73ffffffffffffffffffffffffffffffffffffffff1673ffffffffffffffffffffffffffffffffffffffff16815260200190815260200160002060008282546112d39190612961565b92505081905550505050806112e790612ad0565b90506110f4565b508473ffffffffffffffffffffffffffffffffffffffff168673ffffffffffffffffffffffffffffffffffffffff168273ffffffffffffffffffffffffffffffffffffffff167f4a39dc06d4c0dbc64b70af90fd698a233a518aa5d07e595d983b8c0526c8f7fb87876040516113659291906125af565b60405180910390a461137b81878787878761185f565b611389818787878787611a4e565b505050505050565b600073ffffffffffffffffffffffffffffffffffffffff168473ffffffffffffffffffffffffffffffffffffffff161415611401576040517f08c379a00000000000000000000000000000000000000000000000000000000081526004016113f8906127de565b60405180910390fd5b600061140b61101b565b9050600061141885611791565b9050600061142585611791565b905061143683600089858589611857565b8460008088815260200190815260200160002060008973ffffffffffffffffffffffffffffffffffffffff1673ffffffffffffffffffffffffffffffffffffffff16815260200190815260200160002060008282546114959190612961565b925050819055508673ffffffffffffffffffffffffffffffffffffffff16600073ffffffffffffffffffffffffffffffffffffffff168473ffffffffffffffffffffffffffffffffffffffff167fc3d58168c5ae7397731d063d5bbf3d657854427343f4c083240f7aacaa2d0f628989604051611513929190612819565b60405180910390a461152a8360008985858961185f565b61153983600089898989611867565b50505050505050565b8173ffffffffffffffffffffffffffffffffffffffff168373ffffffffffffffffffffffffffffffffffffffff1614156115b1576040517f08c379a00000000000000000000000000000000000000000000000000000000081526004016115a89061277e565b60405180910390fd5b80600160008573ffffffffffffffffffffffffffffffffffffffff1673ffffffffffffffffffffffffffffffffffffffff16815260200190815260200160002060008473ffffffffffffffffffffffffffffffffffffffff1673ffffffffffffffffffffffffffffffffffffffff16815260200190815260200160002060006101000a81548160ff0219169083151502179055508173ffffffffffffffffffffffffffffffffffffffff168373ffffffffffffffffffffffffffffffffffffffff167f17307eab39ab6107e8899845ad3d59bd9653f200f220920489ca2b5937696c31836040516116a291906125e6565b60405180910390a3505050565b60007fd9b67a26000000000000000000000000000000000000000000000000000000007bffffffffffffffffffffffffffffffffffffffffffffffffffffffff1916827bffffffffffffffffffffffffffffffffffffffffffffffffffffffff1916148061177a57507f0e89341c000000000000000000000000000000000000000000000000000000007bffffffffffffffffffffffffffffffffffffffffffffffffffffffff1916827bffffffffffffffffffffffffffffffffffffffffffffffffffffffff1916145b8061178a575061178982611c35565b5b9050919050565b60606000600167ffffffffffffffff8111156117d6577f4e487b7100000000000000000000000000000000000000000000000000000000600052604160045260246000fd5b6040519080825280602002602001820160405280156118045781602001602082028036833780820191505090505b5090508281600081518110611842577f4e487b7100000000000000000000000000000000000000000000000000000000600052603260045260246000fd5b60200260200101818152505080915050919050565b505050505050565b505050505050565b6118868473ffffffffffffffffffffffffffffffffffffffff16610ce2565b15611a46578373ffffffffffffffffffffffffffffffffffffffff1663f23a6e6187878686866040518663ffffffff1660e01b81526004016118cc959493929190612533565b602060405180830381600087803b1580156118e657600080fd5b505af192505050801561191757506040513d601f19601f82011682018060405250810190611914919061215c565b60015b6119bd57611923612ba6565b806308c379a014156119805750611938612fec565b806119435750611982565b806040517f08c379a0000000000000000000000000000000000000000000000000000000008152600401611977919061261c565b60405180910390fd5b505b6040517f08c379a00000000000000000000000000000000000000000000000000000000081526004016119b49061263e565b60405180910390fd5b63f23a6e6160e01b7bffffffffffffffffffffffffffffffffffffffffffffffffffffffff1916817bffffffffffffffffffffffffffffffffffffffffffffffffffffffff191614611a44576040517f08c379a0000000000000000000000000000000000000000000000000000000008152600401611a3b9061265e565b60405180910390fd5b505b505050505050565b611a6d8473ffffffffffffffffffffffffffffffffffffffff16610ce2565b15611c2d578373ffffffffffffffffffffffffffffffffffffffff1663bc197c8187878686866040518663ffffffff1660e01b8152600401611ab39594939291906124cb565b602060405180830381600087803b158015611acd57600080fd5b505af1925050508015611afe57506040513d601f19601f82011682018060405250810190611afb919061215c565b60015b611ba457611b0a612ba6565b806308c379a01415611b675750611b1f612fec565b80611b2a5750611b69565b806040517f08c379a0000000000000000000000000000000000000000000000000000000008152600401611b5e919061261c565b60405180910390fd5b505b6040517f08c379a0000000000000000000000000000000000000000000000000000000008152600401611b9b9061263e565b60405180910390fd5b63bc197c8160e01b7bffffffffffffffffffffffffffffffffffffffffffffffffffffffff1916817bffffffffffffffffffffffffffffffffffffffffffffffffffffffff191614611c2b576040517f08c379a0000000000000000000000000000000000000000000000000000000008152600401611c229061265e565b60405180910390fd5b505b505050505050565b60007f01ffc9a7000000000000000000000000000000000000000000000000000000007bffffffffffffffffffffffffffffffffffffffffffffffffffffffff1916827bffffffffffffffffffffffffffffffffffffffffffffffffffffffff1916149050919050565b6000611cb2611cad84612867565b612842565b90508083825260208201905082856020860282011115611cd157600080fd5b60005b85811015611d015781611ce78882611db5565b845260208401935060208301925050600181019050611cd4565b5050509392505050565b6000611d1e611d1984612893565b612842565b90508083825260208201905082856020860282011115611d3d57600080fd5b60005b85811015611d6d5781611d538882611e87565b845260208401935060208301925050600181019050611d40565b5050509392505050565b6000611d8a611d85846128bf565b612842565b905082815260208101848484011115611da257600080fd5b611dad848285612a2b565b509392505050565b600081359050611dc481613082565b92915050565b600082601f830112611ddb57600080fd5b8135611deb848260208601611c9f565b91505092915050565b600082601f830112611e0557600080fd5b8135611e15848260208601611d0b565b91505092915050565b600081359050611e2d81613099565b92915050565b600081359050611e42816130b0565b92915050565b600081519050611e57816130b0565b92915050565b600082601f830112611e6e57600080fd5b8135611e7e848260208601611d77565b91505092915050565b600081359050611e96816130c7565b92915050565b600060208284031215611eae57600080fd5b6000611ebc84828501611db5565b91505092915050565b60008060408385031215611ed857600080fd5b6000611ee685828601611db5565b9250506020611ef785828601611db5565b9150509250929050565b600080600080600060a08688031215611f1957600080fd5b6000611f2788828901611db5565b9550506020611f3888828901611db5565b945050604086013567ffffffffffffffff811115611f5557600080fd5b611f6188828901611df4565b935050606086013567ffffffffffffffff811115611f7e57600080fd5b611f8a88828901611df4565b925050608086013567ffffffffffffffff811115611fa757600080fd5b611fb388828901611e5d565b9150509295509295909350565b600080600080600060a08688031215611fd857600080fd5b6000611fe688828901611db5565b9550506020611ff788828901611db5565b945050604061200888828901611e87565b935050606061201988828901611e87565b925050608086013567ffffffffffffffff81111561203657600080fd5b61204288828901611e5d565b9150509295509295909350565b6000806040838503121561206257600080fd5b600061207085828601611db5565b925050602061208185828601611e1e565b9150509250929050565b6000806040838503121561209e57600080fd5b60006120ac85828601611db5565b92505060206120bd85828601611e87565b9150509250929050565b600080604083850312156120da57600080fd5b600083013567ffffffffffffffff8111156120f457600080fd5b61210085828601611dca565b925050602083013567ffffffffffffffff81111561211d57600080fd5b61212985828601611df4565b9150509250929050565b60006020828403121561214557600080fd5b600061215384828501611e33565b91505092915050565b60006020828403121561216e57600080fd5b600061217c84828501611e48565b91505092915050565b60006020828403121561219757600080fd5b60006121a584828501611e87565b91505092915050565b60006121ba83836124ad565b60208301905092915050565b6121cf816129b7565b82525050565b60006121e082612900565b6121ea818561292e565b93506121f5836128f0565b8060005b8381101561222657815161220d88826121ae565b975061221883612921565b9250506001810190506121f9565b5085935050505092915050565b61223c816129c9565b82525050565b61224b816129d5565b82525050565b600061225c8261290b565b612266818561293f565b9350612276818560208601612a3a565b61227f81612bc8565b840191505092915050565b600061229582612916565b61229f8185612950565b93506122af818560208601612a3a565b6122b881612bc8565b840191505092915050565b60006122d0603483612950565b91506122db82612be6565b604082019050919050565b60006122f3602883612950565b91506122fe82612c35565b604082019050919050565b6000612316602b83612950565b915061232182612c84565b604082019050919050565b6000612339602983612950565b915061234482612cd3565b604082019050919050565b600061235c601283612950565b915061236782612d22565b602082019050919050565b600061237f602583612950565b915061238a82612d4b565b604082019050919050565b60006123a2603283612950565b91506123ad82612d9a565b604082019050919050565b60006123c5602a83612950565b91506123d082612de9565b604082019050919050565b60006123e8602983612950565b91506123f382612e38565b604082019050919050565b600061240b600b83612950565b915061241682612e87565b602082019050919050565b600061242e602983612950565b915061243982612eb0565b604082019050919050565b6000612451602983612950565b915061245c82612eff565b604082019050919050565b6000612474602883612950565b915061247f82612f4e565b604082019050919050565b6000612497602183612950565b91506124a282612f9d565b604082019050919050565b6124b681612a21565b82525050565b6124c581612a21565b82525050565b600060a0820190506124e060008301886121c6565b6124ed60208301876121c6565b81810360408301526124ff81866121d5565b9050818103606083015261251381856121d5565b905081810360808301526125278184612251565b90509695505050505050565b600060a08201905061254860008301886121c6565b61255560208301876121c6565b61256260408301866124bc565b61256f60608301856124bc565b81810360808301526125818184612251565b90509695505050505050565b600060208201905081810360008301526125a781846121d5565b905092915050565b600060408201905081810360008301526125c981856121d5565b905081810360208301526125dd81846121d5565b90509392505050565b60006020820190506125fb6000830184612233565b92915050565b60006020820190506126166000830184612242565b92915050565b60006020820190508181036000830152612636818461228a565b905092915050565b60006020820190508181036000830152612657816122c3565b9050919050565b60006020820190508181036000830152612677816122e6565b9050919050565b6000602082019050818103600083015261269781612309565b9050919050565b600060208201905081810360008301526126b78161232c565b9050919050565b600060208201905081810360008301526126d78161234f565b9050919050565b600060208201905081810360008301526126f781612372565b9050919050565b6000602082019050818103600083015261271781612395565b9050919050565b60006020820190508181036000830152612737816123b8565b9050919050565b60006020820190508181036000830152612757816123db565b9050919050565b60006020820190508181036000830152612777816123fe565b9050919050565b6000602082019050818103600083015261279781612421565b9050919050565b600060208201905081810360008301526127b781612444565b9050919050565b600060208201905081810360008301526127d781612467565b9050919050565b600060208201905081810360008301526127f78161248a565b9050919050565b600060208201905061281360008301846124bc565b92915050565b600060408201905061282e60008301856124bc565b61283b60208301846124bc565b9392505050565b600061284c61285d565b90506128588282612a9f565b919050565b6000604051905090565b600067ffffffffffffffff82111561288257612881612b77565b5b602082029050602081019050919050565b600067ffffffffffffffff8211156128ae576128ad612b77565b5b602082029050602081019050919050565b600067ffffffffffffffff8211156128da576128d9612b77565b5b6128e382612bc8565b9050602081019050919050565b6000819050602082019050919050565b600081519050919050565b600081519050919050565b600081519050919050565b6000602082019050919050565b600082825260208201905092915050565b600082825260208201905092915050565b600082825260208201905092915050565b600061296c82612a21565b915061297783612a21565b9250827fffffffffffffffffffffffffffffffffffffffffffffffffffffffffffffffff038211156129ac576129ab612b19565b5b828201905092915050565b60006129c282612a01565b9050919050565b60008115159050919050565b60007fffffffff0000000000000000000000000000000000000000000000000000000082169050919050565b600073ffffffffffffffffffffffffffffffffffffffff82169050919050565b6000819050919050565b82818337600083830152505050565b60005b83811015612a58578082015181840152602081019050612a3d565b83811115612a67576000848401525b50505050565b60006002820490506001821680612a8557607f821691505b60208210811415612a9957612a98612b48565b5b50919050565b612aa882612bc8565b810181811067ffffffffffffffff82111715612ac757612ac6612b77565b5b80604052505050565b6000612adb82612a21565b91507fffffffffffffffffffffffffffffffffffffffffffffffffffffffffffffffff821415612b0e57612b0d612b19565b5b600182019050919050565b7f4e487b7100000000000000000000000000000000000000000000000000000000600052601160045260246000fd5b7f4e487b7100000000000000000000000000000000000000000000000000000000600052602260045260246000fd5b7f4e487b7100000000000000000000000000000000000000000000000000000000600052604160045260246000fd5b600060033d1115612bc55760046000803e612bc2600051612bd9565b90505b90565b6000601f19601f8301169050919050565b60008160e01c9050919050565b7f455243313135353a207472616e7366657220746f206e6f6e204552433131353560008201527f526563656976657220696d706c656d656e746572000000000000000000000000602082015250565b7f455243313135353a204552433131353552656365697665722072656a6563746560008201527f6420746f6b656e73000000000000000000000000000000000000000000000000602082015250565b7f455243313135353a2062616c616e636520717565727920666f7220746865207a60008201527f65726f2061646472657373000000000000000000000000000000000000000000602082015250565b7f455243313135353a2063616c6c6572206973206e6f74206f776e6572206e6f7260008201527f20617070726f7665640000000000000000000000000000000000000000000000602082015250565b7f496e73756666696369656e74204465736f730000000000000000000000000000600082015250565b7f455243313135353a207472616e7366657220746f20746865207a65726f20616460008201527f6472657373000000000000000000000000000000000000000000000000000000602082015250565b7f455243313135353a207472616e736665722063616c6c6572206973206e6f742060008201527f6f776e6572206e6f7220617070726f7665640000000000000000000000000000602082015250565b7f455243313135353a20696e73756666696369656e742062616c616e636520666f60008201527f72207472616e7366657200000000000000000000000000000000000000000000602082015250565b7f796f7520616c7265616479206861766520726563656976656420796f7572206660008201527f726565204445534f530000000000000000000000000000000000000000000000602082015250565b7f4d61782072656163686564000000000000000000000000000000000000000000600082015250565b7f455243313135353a2073657474696e6720617070726f76616c2073746174757360008201527f20666f722073656c660000000000000000000000000000000000000000000000602082015250565b7f455243313135353a206163636f756e747320616e6420696473206c656e67746860008201527f206d69736d617463680000000000000000000000000000000000000000000000602082015250565b7f455243313135353a2069647320616e6420616d6f756e7473206c656e6774682060008201527f6d69736d61746368000000000000000000000000000000000000000000000000602082015250565b7f455243313135353a206d696e7420746f20746865207a65726f2061646472657360008201527f7300000000000000000000000000000000000000000000000000000000000000602082015250565b600060443d1015612ffc5761307f565b61300461285d565b60043d036004823e80513d602482011167ffffffffffffffff8211171561302c57505061307f565b808201805167ffffffffffffffff81111561304a575050505061307f565b80602083010160043d03850181111561306757505050505061307f565b61307682602001850186612a9f565b82955050505050505b90565b61308b816129b7565b811461309657600080fd5b50565b6130a2816129c9565b81146130ad57600080fd5b50565b6130b9816129d5565b81146130c457600080fd5b50565b6130d081612a21565b81146130db57600080fd5b5056fea2646970667358221220a987bcedc4309933f47381195019794f14bb4580b4d7f44202bcfeb1d4c074a164736f6c6343000804003368747470733a2f2f67616d652e6578616d706c652f6170692f6974656d2f7b69647d2e6a736f6e",
  "linkReferences": {},
  "deployedLinkReferences": {}
}