{
  "_format": "hh-sol-artifact-1",
  "contractName": "Monetizable",
  "sourceName": "cache/solpp-generated-contracts/core/Monetizable.sol",
  "abi": [
    {
      "anonymous": false,
      "inputs": [
        {
          "indexed": true,
          "internalType": "address",
          "name": "previousOwner",
          "type": "address"
        },
        {
          "indexed": true,
          "internalType": "address",
          "name": "newOwner",
          "type": "address"
        }
      ],
      "name": "OwnershipTransferred",
      "type": "event"
    },
    {
      "inputs": [],
      "name": "owner",
      "outputs": [
        {
          "internalType": "address",
          "name": "",
          "type": "address"
        }
      ],
      "stateMutability": "view",
      "type": "function"
    },
    {
      "inputs": [],
      "name": "renounceOwnership",
      "outputs": [],
      "stateMutability": "nonpayable",
      "type": "function"
    },
    {
      "inputs": [
        {
          "internalType": "uint256",
          "name": "baseFee",
          "type": "uint256"
        }
      ],
      "name": "setBaseFee",
      "outputs": [],
      "stateMutability": "nonpayable",
      "type": "function"
    },
    {
      "inputs": [
        {
          "internalType": "address",
          "name": "newOwner",
          "type": "address"
        }
      ],
      "name": "transferOwnership",
      "outputs": [],
      "stateMutability": "nonpayable",
      "type": "function"
    },
    {
      "inputs": [],
      "name": "withdraw",
      "outputs": [],
      "stateMutability": "nonpayable",
      "type": "function"
    }
  ],
  "bytecode": "0x6080604052670de0b6b3a76400006002556402540be40060035534801561002557600080fd5b5061004261003761004e60201b60201c565b61005660201b60201c565b6001808190555061011a565b600033905090565b60008060009054906101000a900473ffffffffffffffffffffffffffffffffffffffff169050816000806101000a81548173ffffffffffffffffffffffffffffffffffffffff021916908373ffffffffffffffffffffffffffffffffffffffff1602179055508173ffffffffffffffffffffffffffffffffffffffff168173ffffffffffffffffffffffffffffffffffffffff167f8be0079c531659141344cd1fd0a4f28419497f9722a3daafe3b4186f6b6457e060405160405180910390a35050565b610878806101296000396000f3fe608060405234801561001057600080fd5b50600436106100575760003560e01c80633ccfd60b1461005c5780634686069814610066578063715018a6146100825780638da5cb5b1461008c578063f2fde38b146100aa575b600080fd5b6100646100c6565b005b610080600480360381019061007b9190610578565b61022a565b005b61008a6102b0565b005b610094610338565b6040516100a1919061063c565b60405180910390f35b6100c460048036038101906100bf919061054f565b610361565b005b6100ce610459565b73ffffffffffffffffffffffffffffffffffffffff166100ec610338565b73ffffffffffffffffffffffffffffffffffffffff1614610142576040517f08c379a000000000000000000000000000000000000000000000000000000000815260040161013990610697565b60405180910390fd5b60026001541415610188576040517f08c379a000000000000000000000000000000000000000000000000000000000815260040161017f906106b7565b60405180910390fd5b6002600181905550600047116101d3576040517f08c379a00000000000000000000000000000000000000000000000000000000081526004016101ca90610677565b60405180910390fd5b6101db610338565b73ffffffffffffffffffffffffffffffffffffffff166108fc479081150290604051600060405180830381858888f19350505050158015610220573d6000803e3d6000fd5b5060018081905550565b610232610459565b73ffffffffffffffffffffffffffffffffffffffff16610250610338565b73ffffffffffffffffffffffffffffffffffffffff16146102a6576040517f08c379a000000000000000000000000000000000000000000000000000000000815260040161029d90610697565b60405180910390fd5b8060038190555050565b6102b8610459565b73ffffffffffffffffffffffffffffffffffffffff166102d6610338565b73ffffffffffffffffffffffffffffffffffffffff161461032c576040517f08c379a000000000000000000000000000000000000000000000000000000000815260040161032390610697565b60405180910390fd5b6103366000610461565b565b60008060009054906101000a900473ffffffffffffffffffffffffffffffffffffffff16905090565b610369610459565b73ffffffffffffffffffffffffffffffffffffffff16610387610338565b73ffffffffffffffffffffffffffffffffffffffff16146103dd576040517f08c379a00000000000000000000000000000000000000000000000000000000081526004016103d490610697565b60405180910390fd5b600073ffffffffffffffffffffffffffffffffffffffff168173ffffffffffffffffffffffffffffffffffffffff16141561044d576040517f08c379a000000000000000000000000000000000000000000000000000000000815260040161044490610657565b60405180910390fd5b61045681610461565b50565b600033905090565b60008060009054906101000a900473ffffffffffffffffffffffffffffffffffffffff169050816000806101000a81548173ffffffffffffffffffffffffffffffffffffffff021916908373ffffffffffffffffffffffffffffffffffffffff1602179055508173ffffffffffffffffffffffffffffffffffffffff168173ffffffffffffffffffffffffffffffffffffffff167f8be0079c531659141344cd1fd0a4f28419497f9722a3daafe3b4186f6b6457e060405160405180910390a35050565b60008135905061053481610814565b92915050565b6000813590506105498161082b565b92915050565b60006020828403121561056157600080fd5b600061056f84828501610525565b91505092915050565b60006020828403121561058a57600080fd5b60006105988482850161053a565b91505092915050565b6105aa816106e8565b82525050565b60006105bd6026836106d7565b91506105c882610724565b604082019050919050565b60006105e0602f836106d7565b91506105eb82610773565b604082019050919050565b60006106036020836106d7565b915061060e826107c2565b602082019050919050565b6000610626601f836106d7565b9150610631826107eb565b602082019050919050565b600060208201905061065160008301846105a1565b92915050565b60006020820190508181036000830152610670816105b0565b9050919050565b60006020820190508181036000830152610690816105d3565b9050919050565b600060208201905081810360008301526106b0816105f6565b9050919050565b600060208201905081810360008301526106d081610619565b9050919050565b600082825260208201905092915050565b60006106f3826106fa565b9050919050565b600073ffffffffffffffffffffffffffffffffffffffff82169050919050565b6000819050919050565b7f4f776e61626c653a206e6577206f776e657220697320746865207a65726f206160008201527f6464726573730000000000000000000000000000000000000000000000000000602082015250565b7f4d6f6e6574697a61626c653a204e6f2066756e6473206f6e2074686520636f6e60008201527f747261637420617661696c61626c650000000000000000000000000000000000602082015250565b7f4f776e61626c653a2063616c6c6572206973206e6f7420746865206f776e6572600082015250565b7f5265656e7472616e637947756172643a207265656e7472616e742063616c6c00600082015250565b61081d816106e8565b811461082857600080fd5b50565b6108348161071a565b811461083f57600080fd5b5056fea264697066735822122068c188d8f95b9cf5cc3c40e1edac5fc6b6583d9f9cade0ef3abd957583ca433164736f6c63430008040033",
  "linkReferences": {},
  "deployedLinkReferences": {}
}