{
  "_format": "hh-sol-artifact-1",
  "contractName": "WorldActionMining",
  "sourceName": "cache/solpp-generated-contracts/world/WorldActionMining.sol",
  "abi": [
    {
      "anonymous": false,
      "inputs": [
        {
          "indexed": true,
          "internalType": "address",
          "name": "account",
          "type": "address"
        },
        {
          "indexed": true,
          "internalType": "address",
          "name": "operator",
          "type": "address"
        },
        {
          "indexed": false,
          "internalType": "bool",
          "name": "approved",
          "type": "bool"
        }
      ],
      "name": "ApprovalForAll",
      "type": "event"
    },
    {
      "anonymous": false,
      "inputs": [
        {
          "indexed": true,
          "internalType": "address",
          "name": "previousOwner",
          "type": "address"
        },
        {
          "indexed": true,
          "internalType": "address",
          "name": "newOwner",
          "type": "address"
        }
      ],
      "name": "OwnershipTransferred",
      "type": "event"
    },
    {
      "anonymous": false,
      "inputs": [
        {
          "indexed": true,
          "internalType": "address",
          "name": "operator",
          "type": "address"
        },
        {
          "indexed": true,
          "internalType": "address",
          "name": "from",
          "type": "address"
        },
        {
          "indexed": true,
          "internalType": "address",
          "name": "to",
          "type": "address"
        },
        {
          "indexed": false,
          "internalType": "uint256[]",
          "name": "ids",
          "type": "uint256[]"
        },
        {
          "indexed": false,
          "internalType": "uint256[]",
          "name": "values",
          "type": "uint256[]"
        }
      ],
      "name": "TransferBatch",
      "type": "event"
    },
    {
      "anonymous": false,
      "inputs": [
        {
          "indexed": true,
          "internalType": "address",
          "name": "operator",
          "type": "address"
        },
        {
          "indexed": true,
          "internalType": "address",
          "name": "from",
          "type": "address"
        },
        {
          "indexed": true,
          "internalType": "address",
          "name": "to",
          "type": "address"
        },
        {
          "indexed": false,
          "internalType": "uint256",
          "name": "id",
          "type": "uint256"
        },
        {
          "indexed": false,
          "internalType": "uint256",
          "name": "value",
          "type": "uint256"
        }
      ],
      "name": "TransferSingle",
      "type": "event"
    },
    {
      "anonymous": false,
      "inputs": [
        {
          "indexed": false,
          "internalType": "string",
          "name": "value",
          "type": "string"
        },
        {
          "indexed": true,
          "internalType": "uint256",
          "name": "id",
          "type": "uint256"
        }
      ],
      "name": "URI",
      "type": "event"
    },
    {
      "inputs": [],
      "name": "DESOS",
      "outputs": [
        {
          "internalType": "uint256",
          "name": "",
          "type": "uint256"
        }
      ],
      "stateMutability": "view",
      "type": "function"
    },
    {
      "inputs": [],
      "name": "DESOS_FREE",
      "outputs": [
        {
          "internalType": "uint256",
          "name": "",
          "type": "uint256"
        }
      ],
      "stateMutability": "view",
      "type": "function"
    },
    {
      "inputs": [],
      "name": "HOTEL",
      "outputs": [
        {
          "internalType": "uint256",
          "name": "",
          "type": "uint256"
        }
      ],
      "stateMutability": "view",
      "type": "function"
    },
    {
      "inputs": [],
      "name": "MINE",
      "outputs": [
        {
          "internalType": "uint256",
          "name": "",
          "type": "uint256"
        }
      ],
      "stateMutability": "view",
      "type": "function"
    },
    {
      "inputs": [],
      "name": "SALOON",
      "outputs": [
        {
          "internalType": "uint256",
          "name": "",
          "type": "uint256"
        }
      ],
      "stateMutability": "view",
      "type": "function"
    },
    {
      "inputs": [],
      "name": "TOKEN_NAME",
      "outputs": [
        {
          "internalType": "string",
          "name": "",
          "type": "string"
        }
      ],
      "stateMutability": "view",
      "type": "function"
    },
    {
      "inputs": [],
      "name": "TRADING_POST",
      "outputs": [
        {
          "internalType": "uint256",
          "name": "",
          "type": "uint256"
        }
      ],
      "stateMutability": "view",
      "type": "function"
    },
    {
      "inputs": [],
      "name": "TRAIN_STATION",
      "outputs": [
        {
          "internalType": "uint256",
          "name": "",
          "type": "uint256"
        }
      ],
      "stateMutability": "view",
      "type": "function"
    },
    {
      "inputs": [],
      "name": "WORKER",
      "outputs": [
        {
          "internalType": "uint256",
          "name": "",
          "type": "uint256"
        }
      ],
      "stateMutability": "view",
      "type": "function"
    },
    {
      "inputs": [
        {
          "internalType": "address",
          "name": "recipient",
          "type": "address"
        },
        {
          "internalType": "uint256",
          "name": "amount",
          "type": "uint256"
        }
      ],
      "name": "_rewardDesos",
      "outputs": [],
      "stateMutability": "nonpayable",
      "type": "function"
    },
    {
      "inputs": [
        {
          "internalType": "address",
          "name": "account",
          "type": "address"
        },
        {
          "internalType": "uint256",
          "name": "id",
          "type": "uint256"
        }
      ],
      "name": "balanceOf",
      "outputs": [
        {
          "internalType": "uint256",
          "name": "",
          "type": "uint256"
        }
      ],
      "stateMutability": "view",
      "type": "function"
    },
    {
      "inputs": [
        {
          "internalType": "address[]",
          "name": "accounts",
          "type": "address[]"
        },
        {
          "internalType": "uint256[]",
          "name": "ids",
          "type": "uint256[]"
        }
      ],
      "name": "balanceOfBatch",
      "outputs": [
        {
          "internalType": "uint256[]",
          "name": "",
          "type": "uint256[]"
        }
      ],
      "stateMutability": "view",
      "type": "function"
    },
    {
      "inputs": [
        {
          "internalType": "address",
          "name": "_caller",
          "type": "address"
        }
      ],
      "name": "completeWorldActionCooldown",
      "outputs": [],
      "stateMutability": "payable",
      "type": "function"
    },
    {
      "inputs": [
        {
          "internalType": "address",
          "name": "_caller",
          "type": "address"
        }
      ],
      "name": "getCompleteWorldActionCooldownEstimatedFee",
      "outputs": [
        {
          "internalType": "uint256",
          "name": "estimatedFeeToPay",
          "type": "uint256"
        }
      ],
      "stateMutability": "view",
      "type": "function"
    },
    {
      "inputs": [
        {
          "internalType": "address",
          "name": "_caller",
          "type": "address"
        }
      ],
      "name": "getCurrentWorldActionCooldownFor",
      "outputs": [
        {
          "components": [
            {
              "internalType": "uint16",
              "name": "actionType",
              "type": "uint16"
            },
            {
              "internalType": "uint64",
              "name": "cooldownTimestamp",
              "type": "uint64"
            }
          ],
          "internalType": "struct WorldBase.WorldAction",
          "name": "",
          "type": "tuple"
        }
      ],
      "stateMutability": "view",
      "type": "function"
    },
    {
      "inputs": [
        {
          "internalType": "address",
          "name": "recipient",
          "type": "address"
        }
      ],
      "name": "getFreeDesos",
      "outputs": [],
      "stateMutability": "nonpayable",
      "type": "function"
    },
    {
      "inputs": [
        {
          "internalType": "address",
          "name": "account",
          "type": "address"
        },
        {
          "internalType": "address",
          "name": "operator",
          "type": "address"
        }
      ],
      "name": "isApprovedForAll",
      "outputs": [
        {
          "internalType": "bool",
          "name": "",
          "type": "bool"
        }
      ],
      "stateMutability": "view",
      "type": "function"
    },
    {
      "inputs": [
        {
          "internalType": "address",
          "name": "recipient",
          "type": "address"
        }
      ],
      "name": "mintHotel",
      "outputs": [],
      "stateMutability": "nonpayable",
      "type": "function"
    },
    {
      "inputs": [
        {
          "internalType": "address",
          "name": "recipient",
          "type": "address"
        }
      ],
      "name": "mintMine",
      "outputs": [],
      "stateMutability": "nonpayable",
      "type": "function"
    },
    {
      "inputs": [
        {
          "internalType": "address",
          "name": "",
          "type": "address"
        },
        {
          "internalType": "address",
          "name": "",
          "type": "address"
        },
        {
          "internalType": "uint256[]",
          "name": "",
          "type": "uint256[]"
        },
        {
          "internalType": "uint256[]",
          "name": "",
          "type": "uint256[]"
        },
        {
          "internalType": "bytes",
          "name": "",
          "type": "bytes"
        }
      ],
      "name": "onERC1155BatchReceived",
      "outputs": [
        {
          "internalType": "bytes4",
          "name": "",
          "type": "bytes4"
        }
      ],
      "stateMutability": "nonpayable",
      "type": "function"
    },
    {
      "inputs": [
        {
          "internalType": "address",
          "name": "",
          "type": "address"
        },
        {
          "internalType": "address",
          "name": "",
          "type": "address"
        },
        {
          "internalType": "uint256",
          "name": "",
          "type": "uint256"
        },
        {
          "internalType": "uint256",
          "name": "",
          "type": "uint256"
        },
        {
          "internalType": "bytes",
          "name": "",
          "type": "bytes"
        }
      ],
      "name": "onERC1155Received",
      "outputs": [
        {
          "internalType": "bytes4",
          "name": "",
          "type": "bytes4"
        }
      ],
      "stateMutability": "nonpayable",
      "type": "function"
    },
    {
      "inputs": [],
      "name": "owner",
      "outputs": [
        {
          "internalType": "address",
          "name": "",
          "type": "address"
        }
      ],
      "stateMutability": "view",
      "type": "function"
    },
    {
      "inputs": [],
      "name": "renounceOwnership",
      "outputs": [],
      "stateMutability": "nonpayable",
      "type": "function"
    },
    {
      "inputs": [
        {
          "internalType": "address",
          "name": "from",
          "type": "address"
        },
        {
          "internalType": "address",
          "name": "to",
          "type": "address"
        },
        {
          "internalType": "uint256[]",
          "name": "ids",
          "type": "uint256[]"
        },
        {
          "internalType": "uint256[]",
          "name": "amounts",
          "type": "uint256[]"
        },
        {
          "internalType": "bytes",
          "name": "data",
          "type": "bytes"
        }
      ],
      "name": "safeBatchTransferFrom",
      "outputs": [],
      "stateMutability": "nonpayable",
      "type": "function"
    },
    {
      "inputs": [
        {
          "internalType": "address",
          "name": "from",
          "type": "address"
        },
        {
          "internalType": "address",
          "name": "to",
          "type": "address"
        },
        {
          "internalType": "uint256",
          "name": "id",
          "type": "uint256"
        },
        {
          "internalType": "uint256",
          "name": "amount",
          "type": "uint256"
        },
        {
          "internalType": "bytes",
          "name": "data",
          "type": "bytes"
        }
      ],
      "name": "safeTransferFrom",
      "outputs": [],
      "stateMutability": "nonpayable",
      "type": "function"
    },
    {
      "inputs": [
        {
          "internalType": "address",
          "name": "operator",
          "type": "address"
        },
        {
          "internalType": "bool",
          "name": "approved",
          "type": "bool"
        }
      ],
      "name": "setApprovalForAll",
      "outputs": [],
      "stateMutability": "nonpayable",
      "type": "function"
    },
    {
      "inputs": [
        {
          "internalType": "uint256",
          "name": "baseFee",
          "type": "uint256"
        }
      ],
      "name": "setBaseFee",
      "outputs": [],
      "stateMutability": "nonpayable",
      "type": "function"
    },
    {
      "inputs": [
        {
          "internalType": "bytes4",
          "name": "interfaceId",
          "type": "bytes4"
        }
      ],
      "name": "supportsInterface",
      "outputs": [
        {
          "internalType": "bool",
          "name": "",
          "type": "bool"
        }
      ],
      "stateMutability": "view",
      "type": "function"
    },
    {
      "inputs": [
        {
          "internalType": "address",
          "name": "newOwner",
          "type": "address"
        }
      ],
      "name": "transferOwnership",
      "outputs": [],
      "stateMutability": "nonpayable",
      "type": "function"
    },
    {
      "inputs": [
        {
          "internalType": "uint256",
          "name": "",
          "type": "uint256"
        }
      ],
      "name": "uri",
      "outputs": [
        {
          "internalType": "string",
          "name": "",
          "type": "string"
        }
      ],
      "stateMutability": "view",
      "type": "function"
    },
    {
      "inputs": [],
      "name": "withdraw",
      "outputs": [],
      "stateMutability": "nonpayable",
      "type": "function"
    },
    {
      "inputs": [
        {
          "internalType": "uint256",
          "name": "",
          "type": "uint256"
        }
      ],
      "name": "worldActionASuccessProbabilities",
      "outputs": [
        {
          "internalType": "uint8",
          "name": "",
          "type": "uint8"
        }
      ],
      "stateMutability": "view",
      "type": "function"
    },
    {
      "inputs": [
        {
          "internalType": "uint256",
          "name": "",
          "type": "uint256"
        }
      ],
      "name": "worldActionCooldowns",
      "outputs": [
        {
          "internalType": "uint32",
          "name": "",
          "type": "uint32"
        }
      ],
      "stateMutability": "view",
      "type": "function"
    },
    {
      "inputs": [
        {
          "internalType": "uint256",
          "name": "",
          "type": "uint256"
        }
      ],
      "name": "worldActionCooldownsSeconds",
      "outputs": [
        {
          "internalType": "uint32",
          "name": "",
          "type": "uint32"
        }
      ],
      "stateMutability": "view",
      "type": "function"
    }
  ],
  "bytecode": "0x6080604052670de0b6b3a76400006002556402540be400600355604051806101400160405280605a60ff1660ff168152602001605060ff1660ff168152602001604660ff1660ff168152602001603c60ff1660ff168152602001603260ff1660ff168152602001602860ff1660ff168152602001601e60ff1660ff168152602001601460ff1660ff168152602001600a60ff1660ff168152602001600560ff1660ff16815250600490600a620000b792919062000990565b50604051806101600160405280600163ffffffff1663ffffffff168152602001600263ffffffff1663ffffffff168152602001600363ffffffff1663ffffffff168152602001600463ffffffff1663ffffffff168152602001600563ffffffff1663ffffffff168152602001600a63ffffffff1663ffffffff168152602001601463ffffffff1663ffffffff168152602001601e63ffffffff1663ffffffff168152602001602863ffffffff1663ffffffff168152602001603263ffffffff1663ffffffff168152602001603c63ffffffff1663ffffffff16815250600590600b620001a592919062000a31565b50604051806101e00160405280600063ffffffff1663ffffffff168152602001603c63ffffffff1663ffffffff168152602001607863ffffffff1663ffffffff16815260200161012c63ffffffff1663ffffffff16815260200161025863ffffffff1663ffffffff16815260200161070863ffffffff1663ffffffff168152602001610e1063ffffffff1663ffffffff168152602001611c2063ffffffff1663ffffffff16815260200161384063ffffffff1663ffffffff16815260200161708063ffffffff1663ffffffff16815260200161e10063ffffffff1663ffffffff1681526020016201518063ffffffff1663ffffffff1681526020016202a30063ffffffff1663ffffffff1681526020016205460063ffffffff1663ffffffff16815260200162093a8063ffffffff1663ffffffff16815250600790600f620002ef92919062000adb565b50348015620002fd57600080fd5b50604051806060016040528060278152602001620055c460279139620003386200032c620003b960201b60201c565b620003c160201b60201c565b6001808190555062000350816200048560201b60201c565b50600060019050620003b2306000633b9aca008462000370919062000f4b565b6040518060400160405280600381526020017f3078300000000000000000000000000000000000000000000000000000000000815250620004a160201b60201c565b5062001331565b600033905090565b60008060009054906101000a900473ffffffffffffffffffffffffffffffffffffffff169050816000806101000a81548173ffffffffffffffffffffffffffffffffffffffff021916908373ffffffffffffffffffffffffffffffffffffffff1602179055508173ffffffffffffffffffffffffffffffffffffffff168173ffffffffffffffffffffffffffffffffffffffff167f8be0079c531659141344cd1fd0a4f28419497f9722a3daafe3b4186f6b6457e060405160405180910390a35050565b80600c90805190602001906200049d92919062000b85565b5050565b600073ffffffffffffffffffffffffffffffffffffffff168473ffffffffffffffffffffffffffffffffffffffff16141562000514576040517f08c379a00000000000000000000000000000000000000000000000000000000081526004016200050b9062000e5d565b60405180910390fd5b600062000526620003b960201b60201c565b905060006200053b856200068a60201b60201c565b9050600062000550856200068a60201b60201c565b905062000569836000898585896200075360201b60201c565b84600a600088815260200190815260200160002060008973ffffffffffffffffffffffffffffffffffffffff1673ffffffffffffffffffffffffffffffffffffffff1681526020019081526020016000206000828254620005cb919062000eee565b925050819055508673ffffffffffffffffffffffffffffffffffffffff16600073ffffffffffffffffffffffffffffffffffffffff168473ffffffffffffffffffffffffffffffffffffffff167fc3d58168c5ae7397731d063d5bbf3d657854427343f4c083240f7aacaa2d0f6289896040516200064b92919062000e7f565b60405180910390a46200066a836000898585896200075b60201b60201c565b62000681836000898989896200076360201b60201c565b50505050505050565b60606000600167ffffffffffffffff811115620006d0577f4e487b7100000000000000000000000000000000000000000000000000000000600052604160045260246000fd5b604051908082528060200260200182016040528015620006ff5781602001602082028036833780820191505090505b50905082816000815181106200073e577f4e487b7100000000000000000000000000000000000000000000000000000000600052603260045260246000fd5b60200260200101818152505080915050919050565b505050505050565b505050505050565b6200078f8473ffffffffffffffffffffffffffffffffffffffff166200096d60201b620018661760201c565b1562000965578373ffffffffffffffffffffffffffffffffffffffff1663f23a6e6187878686866040518663ffffffff1660e01b8152600401620007d895949392919062000d91565b602060405180830381600087803b158015620007f357600080fd5b505af19250505080156200082757506040513d601f19601f8201168201806040525081019062000824919062000c4c565b60015b620008d9576200083662001145565b806308c379a014156200089a57506200084e62001275565b806200085b57506200089c565b806040517f08c379a000000000000000000000000000000000000000000000000000000000815260040162000891919062000df5565b60405180910390fd5b505b6040517f08c379a0000000000000000000000000000000000000000000000000000000008152600401620008d09062000e19565b60405180910390fd5b63f23a6e6160e01b7bffffffffffffffffffffffffffffffffffffffffffffffffffffffff1916817bffffffffffffffffffffffffffffffffffffffffffffffffffffffff19161462000963576040517f08c379a00000000000000000000000000000000000000000000000000000000081526004016200095a9062000e3b565b60405180910390fd5b505b505050505050565b6000808273ffffffffffffffffffffffffffffffffffffffff163b119050919050565b82600a601f0160209004810192821562000a1e5791602002820160005b83821115620009ed57835183826101000a81548160ff021916908360ff1602179055509260200192600101602081600001049283019260010302620009ad565b801562000a1c5782816101000a81549060ff0219169055600101602081600001049283019260010302620009ed565b505b50905062000a2d919062000c16565b5090565b82600b60070160089004810192821562000ac85791602002820160005b8382111562000a9457835183826101000a81548163ffffffff021916908363ffffffff160217905550926020019260040160208160030104928301926001030262000a4e565b801562000ac65782816101000a81549063ffffffff021916905560040160208160030104928301926001030262000a94565b505b50905062000ad7919062000c16565b5090565b82600f60070160089004810192821562000b725791602002820160005b8382111562000b3e57835183826101000a81548163ffffffff021916908363ffffffff160217905550926020019260040160208160030104928301926001030262000af8565b801562000b705782816101000a81549063ffffffff021916905560040160208160030104928301926001030262000b3e565b505b50905062000b81919062000c16565b5090565b82805462000b93906200104c565b90600052602060002090601f01602090048101928262000bb7576000855562000c03565b82601f1062000bd257805160ff191683800117855562000c03565b8280016001018555821562000c03579182015b8281111562000c0257825182559160200191906001019062000be5565b5b50905062000c12919062000c16565b5090565b5b8082111562000c3157600081600090555060010162000c17565b5090565b60008151905062000c468162001317565b92915050565b60006020828403121562000c5f57600080fd5b600062000c6f8482850162000c35565b91505092915050565b62000c838162000fac565b82525050565b600062000c968262000eb6565b62000ca2818562000ecc565b935062000cb481856020860162001016565b62000cbf816200116a565b840191505092915050565b600062000cd78262000ec1565b62000ce3818562000edd565b935062000cf581856020860162001016565b62000d00816200116a565b840191505092915050565b600062000d1a60348362000edd565b915062000d278262001188565b604082019050919050565b600062000d4160288362000edd565b915062000d4e82620011d7565b604082019050919050565b600062000d6860218362000edd565b915062000d758262001226565b604082019050919050565b62000d8b816200100c565b82525050565b600060a08201905062000da8600083018862000c78565b62000db7602083018762000c78565b62000dc6604083018662000d80565b62000dd5606083018562000d80565b818103608083015262000de9818462000c89565b90509695505050505050565b6000602082019050818103600083015262000e11818462000cca565b905092915050565b6000602082019050818103600083015262000e348162000d0b565b9050919050565b6000602082019050818103600083015262000e568162000d32565b9050919050565b6000602082019050818103600083015262000e788162000d59565b9050919050565b600060408201905062000e96600083018562000d80565b62000ea5602083018462000d80565b9392505050565b6000604051905090565b600081519050919050565b600081519050919050565b600082825260208201905092915050565b600082825260208201905092915050565b600062000efb826200100c565b915062000f08836200100c565b9250827fffffffffffffffffffffffffffffffffffffffffffffffffffffffffffffffff0382111562000f405762000f3f620010b8565b5b828201905092915050565b600062000f58826200100c565b915062000f65836200100c565b9250817fffffffffffffffffffffffffffffffffffffffffffffffffffffffffffffffff048311821515161562000fa15762000fa0620010b8565b5b828202905092915050565b600062000fb98262000fec565b9050919050565b60007fffffffff0000000000000000000000000000000000000000000000000000000082169050919050565b600073ffffffffffffffffffffffffffffffffffffffff82169050919050565b6000819050919050565b60005b838110156200103657808201518184015260208101905062001019565b8381111562001046576000848401525b50505050565b600060028204905060018216806200106557607f821691505b602082108114156200107c576200107b620010e7565b5b50919050565b6200108d826200116a565b810181811067ffffffffffffffff82111715620010af57620010ae62001116565b5b80604052505050565b7f4e487b7100000000000000000000000000000000000000000000000000000000600052601160045260246000fd5b7f4e487b7100000000000000000000000000000000000000000000000000000000600052602260045260246000fd5b7f4e487b7100000000000000000000000000000000000000000000000000000000600052604160045260246000fd5b600060033d1115620011675760046000803e620011646000516200117b565b90505b90565b6000601f19601f8301169050919050565b60008160e01c9050919050565b7f455243313135353a207472616e7366657220746f206e6f6e204552433131353560008201527f526563656976657220696d706c656d656e746572000000000000000000000000602082015250565b7f455243313135353a204552433131353552656365697665722072656a6563746560008201527f6420746f6b656e73000000000000000000000000000000000000000000000000602082015250565b7f455243313135353a206d696e7420746f20746865207a65726f2061646472657360008201527f7300000000000000000000000000000000000000000000000000000000000000602082015250565b600060443d1015620012875762001314565b6200129162000eac565b60043d036004823e80513d602482011167ffffffffffffffff82111715620012bb57505062001314565b808201805167ffffffffffffffff811115620012db575050505062001314565b80602083010160043d038501811115620012fa57505050505062001314565b6200130b8260200185018662001082565b82955050505050505b90565b620013228162000fc0565b81146200132e57600080fd5b50565b61428380620013416000396000f3fe6080604052600436106101f85760003560e01c80635061029d1161010d578063bc197c81116100a0578063e985e9c51161006f578063e985e9c514610739578063f23a6e6114610776578063f242432a146107b3578063f2fde38b146107dc578063fb3f117514610805576101f8565b8063bc197c8114610678578063ce5553f7146106b5578063d3471a6b146106d1578063e4a4a75b1461070e576101f8565b80638da5cb5b116100dc5780638da5cb5b146105d0578063a22cb465146105fb578063aa24ff9a14610624578063b8ca5b221461064d576101f8565b80635061029d1461052657806358e6717214610551578063715018a61461057c578063749ff9f514610593576101f8565b806339a6de21116101905780634164e4c91161015f5780634164e4c91461042d57806346860698146104585780634a152299146104815780634b4dc499146104be5780634e1273f4146104e9576101f8565b806339a6de21146103855780633a28c8cd146103b05780633ccfd60b146103d95780633e7210cd146103f0576101f8565b806318821400116101cc57806318821400146102df57806325bd2ac71461030a5780632eb2c2d614610333578063306172fc1461035c576101f8565b8062fdd58e146101fd57806301ffc9a71461023a5780630e89341c146102775780630fbe687b146102b4575b600080fd5b34801561020957600080fd5b50610224600480360381019061021f9190612d02565b610842565b60405161023191906136a8565b60405180910390f35b34801561024657600080fd5b50610261600480360381019061025c9190612daa565b61090c565b60405161026e91906133b5565b60405180910390f35b34801561028357600080fd5b5061029e60048036038101906102999190612dfc565b61091e565b6040516102ab91906133eb565b60405180910390f35b3480156102c057600080fd5b506102c96109b2565b6040516102d691906136a8565b60405180910390f35b3480156102eb57600080fd5b506102f46109b7565b60405161030191906133eb565b60405180910390f35b34801561031657600080fd5b50610331600480360381019061032c9190612d02565b6109f0565b005b34801561033f57600080fd5b5061035a60048036038101906103559190612b78565b610a37565b005b34801561036857600080fd5b50610383600480360381019061037e9190612b13565b610ad8565b005b34801561039157600080fd5b5061039a610bff565b6040516103a791906136a8565b60405180910390f35b3480156103bc57600080fd5b506103d760048036038101906103d29190612b13565b610c04565b005b3480156103e557600080fd5b506103ee610cdb565b005b3480156103fc57600080fd5b5061041760048036038101906104129190612dfc565b610e3f565b6040516104249190613707565b60405180910390f35b34801561043957600080fd5b50610442610e69565b60405161044f91906136a8565b60405180910390f35b34801561046457600080fd5b5061047f600480360381019061047a9190612dfc565b610e6e565b005b34801561048d57600080fd5b506104a860048036038101906104a39190612b13565b610ef4565b6040516104b591906136a8565b60405180910390f35b3480156104ca57600080fd5b506104d3610fa2565b6040516104e091906136a8565b60405180910390f35b3480156104f557600080fd5b50610510600480360381019061050b9190612d3e565b610fa7565b60405161051d919061335c565b60405180910390f35b34801561053257600080fd5b5061053b611158565b60405161054891906136a8565b60405180910390f35b34801561055d57600080fd5b5061056661115d565b60405161057391906136a8565b60405180910390f35b34801561058857600080fd5b50610591611162565b005b34801561059f57600080fd5b506105ba60048036038101906105b59190612dfc565b6111ea565b6040516105c791906136ec565b60405180910390f35b3480156105dc57600080fd5b506105e561121a565b6040516105f2919061327f565b60405180910390f35b34801561060757600080fd5b50610622600480360381019061061d9190612cc6565b611243565b005b34801561063057600080fd5b5061064b60048036038101906106469190612b13565b611259565b005b34801561065957600080fd5b506106626112ec565b60405161066f91906136a8565b60405180910390f35b34801561068457600080fd5b5061069f600480360381019061069a9190612b78565b6112f1565b6040516106ac91906133d0565b60405180910390f35b6106cf60048036038101906106ca9190612b13565b611306565b005b3480156106dd57600080fd5b506106f860048036038101906106f39190612b13565b611544565b604051610705919061368d565b60405180910390f35b34801561071a57600080fd5b506107236115ef565b60405161073091906136a8565b60405180910390f35b34801561074557600080fd5b50610760600480360381019061075b9190612b3c565b6115f4565b60405161076d91906133b5565b60405180910390f35b34801561078257600080fd5b5061079d60048036038101906107989190612c37565b611688565b6040516107aa91906133d0565b60405180910390f35b3480156107bf57600080fd5b506107da60048036038101906107d59190612c37565b61169d565b005b3480156107e857600080fd5b5061080360048036038101906107fe9190612b13565b61173e565b005b34801561081157600080fd5b5061082c60048036038101906108279190612dfc565b611836565b60405161083991906136ec565b60405180910390f35b60008073ffffffffffffffffffffffffffffffffffffffff168373ffffffffffffffffffffffffffffffffffffffff1614156108b3576040517f08c379a00000000000000000000000000000000000000000000000000000000081526004016108aa9061344d565b60405180910390fd5b600a600083815260200190815260200160002060008473ffffffffffffffffffffffffffffffffffffffff1673ffffffffffffffffffffffffffffffffffffffff16815260200190815260200160002054905092915050565b600061091782611889565b9050919050565b6060600c805461092d90613a4e565b80601f016020809104026020016040519081016040528092919081815260200182805461095990613a4e565b80156109a65780601f1061097b576101008083540402835291602001916109a6565b820191906000526020600020905b81548152906001019060200180831161098957829003601f168201915b50505050509050919050565b606681565b6040518060400160405280600381526020017f444553000000000000000000000000000000000000000000000000000000000081525081565b610a3330836000846040518060400160405280600381526020017f3078300000000000000000000000000000000000000000000000000000000000815250611903565b5050565b610a3f611ba2565b73ffffffffffffffffffffffffffffffffffffffff168573ffffffffffffffffffffffffffffffffffffffff161480610a855750610a8485610a7f611ba2565b6115f4565b5b610ac4576040517f08c379a0000000000000000000000000000000000000000000000000000000008152600401610abb906134ed565b60405180910390fd5b610ad18585858585611baa565b5050505050565b6103e8610ae6826000610842565b1015610b27576040517f08c379a0000000000000000000000000000000000000000000000000000000008152600401610b1e906134ad565b60405180910390fd5b600a610b34826067610842565b10610b74576040517f08c379a0000000000000000000000000000000000000000000000000000000008152600401610b6b9061356d565b60405180910390fd5b610bb9813060006103e86040518060400160405280600381526020017f3078300000000000000000000000000000000000000000000000000000000000815250611903565b610bfc81606760016040518060400160405280600381526020017f3078300000000000000000000000000000000000000000000000000000000000815250611f1b565b50565b60c881565b6000610c11826001610842565b14610c51576040517f08c379a0000000000000000000000000000000000000000000000000000000008152600401610c489061354d565b60405180910390fd5b610c96308260006103e86040518060400160405280600381526020017f3078300000000000000000000000000000000000000000000000000000000000815250611903565b610cd8816001806040518060400160405280600381526020017f3078300000000000000000000000000000000000000000000000000000000000815250611f1b565b50565b610ce3611ba2565b73ffffffffffffffffffffffffffffffffffffffff16610d0161121a565b73ffffffffffffffffffffffffffffffffffffffff1614610d57576040517f08c379a0000000000000000000000000000000000000000000000000000000008152600401610d4e9061358d565b60405180910390fd5b60026001541415610d9d576040517f08c379a0000000000000000000000000000000000000000000000000000000008152600401610d949061366d565b60405180910390fd5b600260018190555060004711610de8576040517f08c379a0000000000000000000000000000000000000000000000000000000008152600401610ddf9061350d565b60405180910390fd5b610df061121a565b73ffffffffffffffffffffffffffffffffffffffff166108fc479081150290604051600060405180830381858888f19350505050158015610e35573d6000803e3d6000fd5b5060018081905550565b600481600a8110610e4f57600080fd5b60209182820401919006915054906101000a900460ff1681565b606581565b610e76611ba2565b73ffffffffffffffffffffffffffffffffffffffff16610e9461121a565b73ffffffffffffffffffffffffffffffffffffffff1614610eea576040517f08c379a0000000000000000000000000000000000000000000000000000000008152600401610ee19061358d565b60405180910390fd5b8060038190555050565b60008042600960008573ffffffffffffffffffffffffffffffffffffffff1673ffffffffffffffffffffffffffffffffffffffff16815260200190815260200160002060000160029054906101000a900467ffffffffffffffff16610f599190613925565b905060008167ffffffffffffffff1611610f7257600080fd5b6003548167ffffffffffffffff16610f8a9190613897565b9150600254821115610f9c5760025491505b50919050565b606781565b60608151835114610fed576040517f08c379a0000000000000000000000000000000000000000000000000000000008152600401610fe49061360d565b60405180910390fd5b6000835167ffffffffffffffff811115611030577f4e487b7100000000000000000000000000000000000000000000000000000000600052604160045260246000fd5b60405190808252806020026020018201604052801561105e5781602001602082028036833780820191505090505b50905060005b845181101561114d576110f78582815181106110a9577f4e487b7100000000000000000000000000000000000000000000000000000000600052603260045260246000fd5b60200260200101518583815181106110ea577f4e487b7100000000000000000000000000000000000000000000000000000000600052603260045260246000fd5b6020026020010151610842565b828281518110611130577f4e487b7100000000000000000000000000000000000000000000000000000000600052603260045260246000fd5b6020026020010181815250508061114690613ab1565b9050611064565b508091505092915050565b606481565b600081565b61116a611ba2565b73ffffffffffffffffffffffffffffffffffffffff1661118861121a565b73ffffffffffffffffffffffffffffffffffffffff16146111de576040517f08c379a00000000000000000000000000000000000000000000000000000000081526004016111d59061358d565b60405180910390fd5b6111e860006120cd565b565b600781600f81106111fa57600080fd5b60089182820401919006600402915054906101000a900463ffffffff1681565b60008060009054906101000a900473ffffffffffffffffffffffffffffffffffffffff16905090565b61125561124e611ba2565b8383612191565b5050565b600a611266826064610842565b106112a6576040517f08c379a000000000000000000000000000000000000000000000000000000000815260040161129d9061356d565b60405180910390fd5b6112e981606460016040518060400160405280600381526020017f3078300000000000000000000000000000000000000000000000000000000000815250611f1b565b50565b606881565b600063bc197c8160e01b905095945050505050565b600061ffff16600960008373ffffffffffffffffffffffffffffffffffffffff1673ffffffffffffffffffffffffffffffffffffffff16815260200190815260200160002060000160009054906101000a900461ffff1661ffff1614156113a2576040517f08c379a0000000000000000000000000000000000000000000000000000000008152600401611399906135ad565b60405180910390fd5b600042600960008473ffffffffffffffffffffffffffffffffffffffff1673ffffffffffffffffffffffffffffffffffffffff16815260200190815260200160002060000160029054906101000a900467ffffffffffffffff166114069190613925565b905060006003548267ffffffffffffffff166114229190613897565b905080341015611467576040517f08c379a000000000000000000000000000000000000000000000000000000000815260040161145e906135ed565b60405180910390fd5b6000600960008573ffffffffffffffffffffffffffffffffffffffff1673ffffffffffffffffffffffffffffffffffffffff1681526020019081526020016000209050428160000160026101000a81548167ffffffffffffffff021916908367ffffffffffffffff160217905550600082346114e391906138f1565b9050600081111561153d576114f6611ba2565b73ffffffffffffffffffffffffffffffffffffffff166108fc829081150290604051600060405180830381858888f1935050505015801561153b573d6000803e3d6000fd5b505b5050505050565b61154c6128ee565b600960008373ffffffffffffffffffffffffffffffffffffffff1673ffffffffffffffffffffffffffffffffffffffff1681526020019081526020016000206040518060400160405290816000820160009054906101000a900461ffff1661ffff1661ffff1681526020016000820160029054906101000a900467ffffffffffffffff1667ffffffffffffffff1667ffffffffffffffff16815250509050919050565b600181565b6000600b60008473ffffffffffffffffffffffffffffffffffffffff1673ffffffffffffffffffffffffffffffffffffffff16815260200190815260200160002060008373ffffffffffffffffffffffffffffffffffffffff1673ffffffffffffffffffffffffffffffffffffffff16815260200190815260200160002060009054906101000a900460ff16905092915050565b600063f23a6e6160e01b905095945050505050565b6116a5611ba2565b73ffffffffffffffffffffffffffffffffffffffff168573ffffffffffffffffffffffffffffffffffffffff1614806116eb57506116ea856116e5611ba2565b6115f4565b5b61172a576040517f08c379a00000000000000000000000000000000000000000000000000000000081526004016117219061348d565b60405180910390fd5b6117378585858585611903565b5050505050565b611746611ba2565b73ffffffffffffffffffffffffffffffffffffffff1661176461121a565b73ffffffffffffffffffffffffffffffffffffffff16146117ba576040517f08c379a00000000000000000000000000000000000000000000000000000000081526004016117b19061358d565b60405180910390fd5b600073ffffffffffffffffffffffffffffffffffffffff168173ffffffffffffffffffffffffffffffffffffffff16141561182a576040517f08c379a00000000000000000000000000000000000000000000000000000000081526004016118219061346d565b60405180910390fd5b611833816120cd565b50565b600581600b811061184657600080fd5b60089182820401919006600402915054906101000a900463ffffffff1681565b6000808273ffffffffffffffffffffffffffffffffffffffff163b119050919050565b60007f4e2312e0000000000000000000000000000000000000000000000000000000007bffffffffffffffffffffffffffffffffffffffffffffffffffffffff1916827bffffffffffffffffffffffffffffffffffffffffffffffffffffffff191614806118fc57506118fb826122fe565b5b9050919050565b600073ffffffffffffffffffffffffffffffffffffffff168473ffffffffffffffffffffffffffffffffffffffff161415611973576040517f08c379a000000000000000000000000000000000000000000000000000000000815260040161196a906134cd565b60405180910390fd5b600061197d611ba2565b9050600061198a856123e0565b90506000611997856123e0565b90506119a78389898585896124a6565b6000600a600088815260200190815260200160002060008a73ffffffffffffffffffffffffffffffffffffffff1673ffffffffffffffffffffffffffffffffffffffff16815260200190815260200160002054905085811015611a3f576040517f08c379a0000000000000000000000000000000000000000000000000000000008152600401611a369061352d565b60405180910390fd5b858103600a600089815260200190815260200160002060008b73ffffffffffffffffffffffffffffffffffffffff1673ffffffffffffffffffffffffffffffffffffffff1681526020019081526020016000208190555085600a600089815260200190815260200160002060008a73ffffffffffffffffffffffffffffffffffffffff1673ffffffffffffffffffffffffffffffffffffffff1681526020019081526020016000206000828254611af69190613841565b925050819055508773ffffffffffffffffffffffffffffffffffffffff168973ffffffffffffffffffffffffffffffffffffffff168573ffffffffffffffffffffffffffffffffffffffff167fc3d58168c5ae7397731d063d5bbf3d657854427343f4c083240f7aacaa2d0f628a8a604051611b739291906136c3565b60405180910390a4611b89848a8a86868a6124ae565b611b97848a8a8a8a8a6124b6565b505050505050505050565b600033905090565b8151835114611bee576040517f08c379a0000000000000000000000000000000000000000000000000000000008152600401611be59061362d565b60405180910390fd5b600073ffffffffffffffffffffffffffffffffffffffff168473ffffffffffffffffffffffffffffffffffffffff161415611c5e576040517f08c379a0000000000000000000000000000000000000000000000000000000008152600401611c55906134cd565b60405180910390fd5b6000611c68611ba2565b9050611c788187878787876124a6565b60005b8451811015611e78576000858281518110611cbf577f4e487b7100000000000000000000000000000000000000000000000000000000600052603260045260246000fd5b602002602001015190506000858381518110611d04577f4e487b7100000000000000000000000000000000000000000000000000000000600052603260045260246000fd5b602002602001015190506000600a600084815260200190815260200160002060008b73ffffffffffffffffffffffffffffffffffffffff1673ffffffffffffffffffffffffffffffffffffffff16815260200190815260200160002054905081811015611da6576040517f08c379a0000000000000000000000000000000000000000000000000000000008152600401611d9d9061352d565b60405180910390fd5b818103600a600085815260200190815260200160002060008c73ffffffffffffffffffffffffffffffffffffffff1673ffffffffffffffffffffffffffffffffffffffff1681526020019081526020016000208190555081600a600085815260200190815260200160002060008b73ffffffffffffffffffffffffffffffffffffffff1673ffffffffffffffffffffffffffffffffffffffff1681526020019081526020016000206000828254611e5d9190613841565b9250508190555050505080611e7190613ab1565b9050611c7b565b508473ffffffffffffffffffffffffffffffffffffffff168673ffffffffffffffffffffffffffffffffffffffff168273ffffffffffffffffffffffffffffffffffffffff167f4a39dc06d4c0dbc64b70af90fd698a233a518aa5d07e595d983b8c0526c8f7fb8787604051611eef92919061337e565b60405180910390a4611f058187878787876124ae565b611f1381878787878761269d565b505050505050565b600073ffffffffffffffffffffffffffffffffffffffff168473ffffffffffffffffffffffffffffffffffffffff161415611f8b576040517f08c379a0000000000000000000000000000000000000000000000000000000008152600401611f829061364d565b60405180910390fd5b6000611f95611ba2565b90506000611fa2856123e0565b90506000611faf856123e0565b9050611fc0836000898585896124a6565b84600a600088815260200190815260200160002060008973ffffffffffffffffffffffffffffffffffffffff1673ffffffffffffffffffffffffffffffffffffffff16815260200190815260200160002060008282546120209190613841565b925050819055508673ffffffffffffffffffffffffffffffffffffffff16600073ffffffffffffffffffffffffffffffffffffffff168473ffffffffffffffffffffffffffffffffffffffff167fc3d58168c5ae7397731d063d5bbf3d657854427343f4c083240f7aacaa2d0f62898960405161209e9291906136c3565b60405180910390a46120b5836000898585896124ae565b6120c4836000898989896124b6565b50505050505050565b60008060009054906101000a900473ffffffffffffffffffffffffffffffffffffffff169050816000806101000a81548173ffffffffffffffffffffffffffffffffffffffff021916908373ffffffffffffffffffffffffffffffffffffffff1602179055508173ffffffffffffffffffffffffffffffffffffffff168173ffffffffffffffffffffffffffffffffffffffff167f8be0079c531659141344cd1fd0a4f28419497f9722a3daafe3b4186f6b6457e060405160405180910390a35050565b8173ffffffffffffffffffffffffffffffffffffffff168373ffffffffffffffffffffffffffffffffffffffff161415612200576040517f08c379a00000000000000000000000000000000000000000000000000000000081526004016121f7906135cd565b60405180910390fd5b80600b60008573ffffffffffffffffffffffffffffffffffffffff1673ffffffffffffffffffffffffffffffffffffffff16815260200190815260200160002060008473ffffffffffffffffffffffffffffffffffffffff1673ffffffffffffffffffffffffffffffffffffffff16815260200190815260200160002060006101000a81548160ff0219169083151502179055508173ffffffffffffffffffffffffffffffffffffffff168373ffffffffffffffffffffffffffffffffffffffff167f17307eab39ab6107e8899845ad3d59bd9653f200f220920489ca2b5937696c31836040516122f191906133b5565b60405180910390a3505050565b60007fd9b67a26000000000000000000000000000000000000000000000000000000007bffffffffffffffffffffffffffffffffffffffffffffffffffffffff1916827bffffffffffffffffffffffffffffffffffffffffffffffffffffffff191614806123c957507f0e89341c000000000000000000000000000000000000000000000000000000007bffffffffffffffffffffffffffffffffffffffffffffffffffffffff1916827bffffffffffffffffffffffffffffffffffffffffffffffffffffffff1916145b806123d957506123d882612884565b5b9050919050565b60606000600167ffffffffffffffff811115612425577f4e487b7100000000000000000000000000000000000000000000000000000000600052604160045260246000fd5b6040519080825280602002602001820160405280156124535781602001602082028036833780820191505090505b5090508281600081518110612491577f4e487b7100000000000000000000000000000000000000000000000000000000600052603260045260246000fd5b60200260200101818152505080915050919050565b505050505050565b505050505050565b6124d58473ffffffffffffffffffffffffffffffffffffffff16611866565b15612695578373ffffffffffffffffffffffffffffffffffffffff1663f23a6e6187878686866040518663ffffffff1660e01b815260040161251b959493929190613302565b602060405180830381600087803b15801561253557600080fd5b505af192505050801561256657506040513d601f19601f820116820180604052508101906125639190612dd3565b60015b61260c57612572613b87565b806308c379a014156125cf575061258761415b565b8061259257506125d1565b806040517f08c379a00000000000000000000000000000000000000000000000000000000081526004016125c691906133eb565b60405180910390fd5b505b6040517f08c379a00000000000000000000000000000000000000000000000000000000081526004016126039061340d565b60405180910390fd5b63f23a6e6160e01b7bffffffffffffffffffffffffffffffffffffffffffffffffffffffff1916817bffffffffffffffffffffffffffffffffffffffffffffffffffffffff191614612693576040517f08c379a000000000000000000000000000000000000000000000000000000000815260040161268a9061342d565b60405180910390fd5b505b505050505050565b6126bc8473ffffffffffffffffffffffffffffffffffffffff16611866565b1561287c578373ffffffffffffffffffffffffffffffffffffffff1663bc197c8187878686866040518663ffffffff1660e01b815260040161270295949392919061329a565b602060405180830381600087803b15801561271c57600080fd5b505af192505050801561274d57506040513d601f19601f8201168201806040525081019061274a9190612dd3565b60015b6127f357612759613b87565b806308c379a014156127b6575061276e61415b565b8061277957506127b8565b806040517f08c379a00000000000000000000000000000000000000000000000000000000081526004016127ad91906133eb565b60405180910390fd5b505b6040517f08c379a00000000000000000000000000000000000000000000000000000000081526004016127ea9061340d565b60405180910390fd5b63bc197c8160e01b7bffffffffffffffffffffffffffffffffffffffffffffffffffffffff1916817bffffffffffffffffffffffffffffffffffffffffffffffffffffffff19161461287a576040517f08c379a00000000000000000000000000000000000000000000000000000000081526004016128719061342d565b60405180910390fd5b505b505050505050565b60007f01ffc9a7000000000000000000000000000000000000000000000000000000007bffffffffffffffffffffffffffffffffffffffffffffffffffffffff1916827bffffffffffffffffffffffffffffffffffffffffffffffffffffffff1916149050919050565b6040518060400160405280600061ffff168152602001600067ffffffffffffffff1681525090565b600061292961292484613747565b613722565b9050808382526020820190508285602086028201111561294857600080fd5b60005b85811015612978578161295e8882612a2c565b84526020840193506020830192505060018101905061294b565b5050509392505050565b600061299561299084613773565b613722565b905080838252602082019050828560208602820111156129b457600080fd5b60005b858110156129e457816129ca8882612afe565b8452602084019350602083019250506001810190506129b7565b5050509392505050565b6000612a016129fc8461379f565b613722565b905082815260208101848484011115612a1957600080fd5b612a24848285613a0c565b509392505050565b600081359050612a3b816141f1565b92915050565b600082601f830112612a5257600080fd5b8135612a62848260208601612916565b91505092915050565b600082601f830112612a7c57600080fd5b8135612a8c848260208601612982565b91505092915050565b600081359050612aa481614208565b92915050565b600081359050612ab98161421f565b92915050565b600081519050612ace8161421f565b92915050565b600082601f830112612ae557600080fd5b8135612af58482602086016129ee565b91505092915050565b600081359050612b0d81614236565b92915050565b600060208284031215612b2557600080fd5b6000612b3384828501612a2c565b91505092915050565b60008060408385031215612b4f57600080fd5b6000612b5d85828601612a2c565b9250506020612b6e85828601612a2c565b9150509250929050565b600080600080600060a08688031215612b9057600080fd5b6000612b9e88828901612a2c565b9550506020612baf88828901612a2c565b945050604086013567ffffffffffffffff811115612bcc57600080fd5b612bd888828901612a6b565b935050606086013567ffffffffffffffff811115612bf557600080fd5b612c0188828901612a6b565b925050608086013567ffffffffffffffff811115612c1e57600080fd5b612c2a88828901612ad4565b9150509295509295909350565b600080600080600060a08688031215612c4f57600080fd5b6000612c5d88828901612a2c565b9550506020612c6e88828901612a2c565b9450506040612c7f88828901612afe565b9350506060612c9088828901612afe565b925050608086013567ffffffffffffffff811115612cad57600080fd5b612cb988828901612ad4565b9150509295509295909350565b60008060408385031215612cd957600080fd5b6000612ce785828601612a2c565b9250506020612cf885828601612a95565b9150509250929050565b60008060408385031215612d1557600080fd5b6000612d2385828601612a2c565b9250506020612d3485828601612afe565b9150509250929050565b60008060408385031215612d5157600080fd5b600083013567ffffffffffffffff811115612d6b57600080fd5b612d7785828601612a41565b925050602083013567ffffffffffffffff811115612d9457600080fd5b612da085828601612a6b565b9150509250929050565b600060208284031215612dbc57600080fd5b6000612dca84828501612aaa565b91505092915050565b600060208284031215612de557600080fd5b6000612df384828501612abf565b91505092915050565b600060208284031215612e0e57600080fd5b6000612e1c84828501612afe565b91505092915050565b6000612e318383613234565b60208301905092915050565b612e4681613959565b82525050565b6000612e57826137e0565b612e61818561380e565b9350612e6c836137d0565b8060005b83811015612e9d578151612e848882612e25565b9750612e8f83613801565b925050600181019050612e70565b5085935050505092915050565b612eb38161396b565b82525050565b612ec281613977565b82525050565b6000612ed3826137eb565b612edd818561381f565b9350612eed818560208601613a1b565b612ef681613ba9565b840191505092915050565b6000612f0c826137f6565b612f168185613830565b9350612f26818560208601613a1b565b612f2f81613ba9565b840191505092915050565b6000612f47603483613830565b9150612f5282613bc7565b604082019050919050565b6000612f6a602883613830565b9150612f7582613c16565b604082019050919050565b6000612f8d602b83613830565b9150612f9882613c65565b604082019050919050565b6000612fb0602683613830565b9150612fbb82613cb4565b604082019050919050565b6000612fd3602983613830565b9150612fde82613d03565b604082019050919050565b6000612ff6601283613830565b915061300182613d52565b602082019050919050565b6000613019602583613830565b915061302482613d7b565b604082019050919050565b600061303c603283613830565b915061304782613dca565b604082019050919050565b600061305f602f83613830565b915061306a82613e19565b604082019050919050565b6000613082602a83613830565b915061308d82613e68565b604082019050919050565b60006130a5602983613830565b91506130b082613eb7565b604082019050919050565b60006130c8600b83613830565b91506130d382613f06565b602082019050919050565b60006130eb602083613830565b91506130f682613f2f565b602082019050919050565b600061310e602a83613830565b915061311982613f58565b604082019050919050565b6000613131602983613830565b915061313c82613fa7565b604082019050919050565b6000613154602583613830565b915061315f82613ff6565b604082019050919050565b6000613177602983613830565b915061318282614045565b604082019050919050565b600061319a602883613830565b91506131a582614094565b604082019050919050565b60006131bd602183613830565b91506131c8826140e3565b604082019050919050565b60006131e0601f83613830565b91506131eb82614132565b602082019050919050565b60408201600082015161320c6000850182613225565b50602082015161321f6020850182613261565b50505050565b61322e816139a3565b82525050565b61323d816139d1565b82525050565b61324c816139d1565b82525050565b61325b816139db565b82525050565b61326a816139eb565b82525050565b613279816139ff565b82525050565b60006020820190506132946000830184612e3d565b92915050565b600060a0820190506132af6000830188612e3d565b6132bc6020830187612e3d565b81810360408301526132ce8186612e4c565b905081810360608301526132e28185612e4c565b905081810360808301526132f68184612ec8565b90509695505050505050565b600060a0820190506133176000830188612e3d565b6133246020830187612e3d565b6133316040830186613243565b61333e6060830185613243565b81810360808301526133508184612ec8565b90509695505050505050565b600060208201905081810360008301526133768184612e4c565b905092915050565b600060408201905081810360008301526133988185612e4c565b905081810360208301526133ac8184612e4c565b90509392505050565b60006020820190506133ca6000830184612eaa565b92915050565b60006020820190506133e56000830184612eb9565b92915050565b600060208201905081810360008301526134058184612f01565b905092915050565b6000602082019050818103600083015261342681612f3a565b9050919050565b6000602082019050818103600083015261344681612f5d565b9050919050565b6000602082019050818103600083015261346681612f80565b9050919050565b6000602082019050818103600083015261348681612fa3565b9050919050565b600060208201905081810360008301526134a681612fc6565b9050919050565b600060208201905081810360008301526134c681612fe9565b9050919050565b600060208201905081810360008301526134e68161300c565b9050919050565b600060208201905081810360008301526135068161302f565b9050919050565b6000602082019050818103600083015261352681613052565b9050919050565b6000602082019050818103600083015261354681613075565b9050919050565b6000602082019050818103600083015261356681613098565b9050919050565b60006020820190508181036000830152613586816130bb565b9050919050565b600060208201905081810360008301526135a6816130de565b9050919050565b600060208201905081810360008301526135c681613101565b9050919050565b600060208201905081810360008301526135e681613124565b9050919050565b6000602082019050818103600083015261360681613147565b9050919050565b600060208201905081810360008301526136268161316a565b9050919050565b600060208201905081810360008301526136468161318d565b9050919050565b60006020820190508181036000830152613666816131b0565b9050919050565b60006020820190508181036000830152613686816131d3565b9050919050565b60006040820190506136a260008301846131f6565b92915050565b60006020820190506136bd6000830184613243565b92915050565b60006040820190506136d86000830185613243565b6136e56020830184613243565b9392505050565b60006020820190506137016000830184613252565b92915050565b600060208201905061371c6000830184613270565b92915050565b600061372c61373d565b90506137388282613a80565b919050565b6000604051905090565b600067ffffffffffffffff82111561376257613761613b58565b5b602082029050602081019050919050565b600067ffffffffffffffff82111561378e5761378d613b58565b5b602082029050602081019050919050565b600067ffffffffffffffff8211156137ba576137b9613b58565b5b6137c382613ba9565b9050602081019050919050565b6000819050602082019050919050565b600081519050919050565b600081519050919050565b600081519050919050565b6000602082019050919050565b600082825260208201905092915050565b600082825260208201905092915050565b600082825260208201905092915050565b600061384c826139d1565b9150613857836139d1565b9250827fffffffffffffffffffffffffffffffffffffffffffffffffffffffffffffffff0382111561388c5761388b613afa565b5b828201905092915050565b60006138a2826139d1565b91506138ad836139d1565b9250817fffffffffffffffffffffffffffffffffffffffffffffffffffffffffffffffff04831182151516156138e6576138e5613afa565b5b828202905092915050565b60006138fc826139d1565b9150613907836139d1565b92508282101561391a57613919613afa565b5b828203905092915050565b6000613930826139eb565b915061393b836139eb565b92508282101561394e5761394d613afa565b5b828203905092915050565b6000613964826139b1565b9050919050565b60008115159050919050565b60007fffffffff0000000000000000000000000000000000000000000000000000000082169050919050565b600061ffff82169050919050565b600073ffffffffffffffffffffffffffffffffffffffff82169050919050565b6000819050919050565b600063ffffffff82169050919050565b600067ffffffffffffffff82169050919050565b600060ff82169050919050565b82818337600083830152505050565b60005b83811015613a39578082015181840152602081019050613a1e565b83811115613a48576000848401525b50505050565b60006002820490506001821680613a6657607f821691505b60208210811415613a7a57613a79613b29565b5b50919050565b613a8982613ba9565b810181811067ffffffffffffffff82111715613aa857613aa7613b58565b5b80604052505050565b6000613abc826139d1565b91507fffffffffffffffffffffffffffffffffffffffffffffffffffffffffffffffff821415613aef57613aee613afa565b5b600182019050919050565b7f4e487b7100000000000000000000000000000000000000000000000000000000600052601160045260246000fd5b7f4e487b7100000000000000000000000000000000000000000000000000000000600052602260045260246000fd5b7f4e487b7100000000000000000000000000000000000000000000000000000000600052604160045260246000fd5b600060033d1115613ba65760046000803e613ba3600051613bba565b90505b90565b6000601f19601f8301169050919050565b60008160e01c9050919050565b7f455243313135353a207472616e7366657220746f206e6f6e204552433131353560008201527f526563656976657220696d706c656d656e746572000000000000000000000000602082015250565b7f455243313135353a204552433131353552656365697665722072656a6563746560008201527f6420746f6b656e73000000000000000000000000000000000000000000000000602082015250565b7f455243313135353a2062616c616e636520717565727920666f7220746865207a60008201527f65726f2061646472657373000000000000000000000000000000000000000000602082015250565b7f4f776e61626c653a206e6577206f776e657220697320746865207a65726f206160008201527f6464726573730000000000000000000000000000000000000000000000000000602082015250565b7f455243313135353a2063616c6c6572206973206e6f74206f776e6572206e6f7260008201527f20617070726f7665640000000000000000000000000000000000000000000000602082015250565b7f496e73756666696369656e74204465736f730000000000000000000000000000600082015250565b7f455243313135353a207472616e7366657220746f20746865207a65726f20616460008201527f6472657373000000000000000000000000000000000000000000000000000000602082015250565b7f455243313135353a207472616e736665722063616c6c6572206973206e6f742060008201527f6f776e6572206e6f7220617070726f7665640000000000000000000000000000602082015250565b7f4d6f6e6574697a61626c653a204e6f2066756e6473206f6e2074686520636f6e60008201527f747261637420617661696c61626c650000000000000000000000000000000000602082015250565b7f455243313135353a20696e73756666696369656e742062616c616e636520666f60008201527f72207472616e7366657200000000000000000000000000000000000000000000602082015250565b7f796f7520616c7265616479206861766520726563656976656420796f7572206660008201527f726565204445534f530000000000000000000000000000000000000000000000602082015250565b7f4d61782072656163686564000000000000000000000000000000000000000000600082015250565b7f4f776e61626c653a2063616c6c6572206973206e6f7420746865206f776e6572600082015250565b7f576f726c64426173653a204e6f206f6e676f696e6720616374696f6e7320746f60008201527f20636f6d706c6574652e00000000000000000000000000000000000000000000602082015250565b7f455243313135353a2073657474696e6720617070726f76616c2073746174757360008201527f20666f722073656c660000000000000000000000000000000000000000000000602082015250565b7f576f726c64416374696f6e733a204e6f7420656e6f756768206665652070726f60008201527f7669646564000000000000000000000000000000000000000000000000000000602082015250565b7f455243313135353a206163636f756e747320616e6420696473206c656e67746860008201527f206d69736d617463680000000000000000000000000000000000000000000000602082015250565b7f455243313135353a2069647320616e6420616d6f756e7473206c656e6774682060008201527f6d69736d61746368000000000000000000000000000000000000000000000000602082015250565b7f455243313135353a206d696e7420746f20746865207a65726f2061646472657360008201527f7300000000000000000000000000000000000000000000000000000000000000602082015250565b7f5265656e7472616e637947756172643a207265656e7472616e742063616c6c00600082015250565b600060443d101561416b576141ee565b61417361373d565b60043d036004823e80513d602482011167ffffffffffffffff8211171561419b5750506141ee565b808201805167ffffffffffffffff8111156141b957505050506141ee565b80602083010160043d0385018111156141d65750505050506141ee565b6141e582602001850186613a80565b82955050505050505b90565b6141fa81613959565b811461420557600080fd5b50565b6142118161396b565b811461421c57600080fd5b50565b61422881613977565b811461423357600080fd5b50565b61423f816139d1565b811461424a57600080fd5b5056fea2646970667358221220145be61f9e55aee3d17ea058a3439caabd08b3aebceb15bdbfa943e5d9e13ef064736f6c6343000804003368747470733a2f2f67616d652e6578616d706c652f6170692f6974656d2f7b69647d2e6a736f6e",
  "linkReferences": {},
  "deployedLinkReferences": {}
}